{"abi":[{"type":"constructor","inputs":[],"stateMutability":"nonpayable"},{"type":"function","name":"DEFAULT_ADMIN_ROLE","inputs":[],"outputs":[{"name":"","type":"bytes32","internalType":"bytes32"}],"stateMutability":"view"},{"type":"function","name":"addSupportedToken","inputs":[{"name":"tokenAddress","type":"address","internalType":"address"},{"name":"symbol","type":"string","internalType":"string"},{"name":"decimals","type":"uint8","internalType":"uint8"},{"name":"isActive","type":"bool","internalType":"bool"}],"outputs":[],"stateMutability":"nonpayable"},{"type":"function","name":"getActiveTokens","inputs":[],"outputs":[{"name":"","type":"address[]","internalType":"address[]"}],"stateMutability":"view"},{"type":"function","name":"getAllSupportedTokens","inputs":[],"outputs":[{"name":"","type":"address[]","internalType":"address[]"}],"stateMutability":"view"},{"type":"function","name":"getRoleAdmin","inputs":[{"name":"role","type":"bytes32","internalType":"bytes32"}],"outputs":[{"name":"","type":"bytes32","internalType":"bytes32"}],"stateMutability":"view"},{"type":"function","name":"getTokenInfo","inputs":[{"name":"tokenAddress","type":"address","internalType":"address"}],"outputs":[{"name":"","type":"tuple","internalType":"struct X402TokenManager.TokenInfo","components":[{"name":"tokenAddress","type":"address","internalType":"address"},{"name":"symbol","type":"string","internalType":"string"},{"name":"decimals","type":"uint8","internalType":"uint8"},{"name":"isActive","type":"bool","internalType":"bool"},{"name":"addedAt","type":"uint256","internalType":"uint256"},{"name":"updatedAt","type":"uint256","internalType":"uint256"}]}],"stateMutability":"view"},{"type":"function","name":"grantRole","inputs":[{"name":"role","type":"bytes32","internalType":"bytes32"},{"name":"account","type":"address","internalType":"address"}],"outputs":[],"stateMutability":"nonpayable"},{"type":"function","name":"hasRole","inputs":[{"name":"role","type":"bytes32","internalType":"bytes32"},{"name":"account","type":"address","internalType":"address"}],"outputs":[{"name":"","type":"bool","internalType":"bool"}],"stateMutability":"view"},{"type":"function","name":"isSupportedToken","inputs":[{"name":"tokenAddress","type":"address","internalType":"address"}],"outputs":[{"name":"","type":"bool","internalType":"bool"}],"stateMutability":"view"},{"type":"function","name":"removeSupportedToken","inputs":[{"name":"tokenAddress","type":"address","internalType":"address"}],"outputs":[],"stateMutability":"nonpayable"},{"type":"function","name":"renounceRole","inputs":[{"name":"role","type":"bytes32","internalType":"bytes32"},{"name":"callerConfirmation","type":"address","internalType":"address"}],"outputs":[],"stateMutability":"nonpayable"},{"type":"function","name":"revokeRole","inputs":[{"name":"role","type":"bytes32","internalType":"bytes32"},{"name":"account","type":"address","internalType":"address"}],"outputs":[],"stateMutability":"nonpayable"},{"type":"function","name":"supportsInterface","inputs":[{"name":"interfaceId","type":"bytes4","internalType":"bytes4"}],"outputs":[{"name":"","type":"bool","internalType":"bool"}],"stateMutability":"view"},{"type":"function","name":"updateTokenStatus","inputs":[{"name":"tokenAddress","type":"address","internalType":"address"},{"name":"isActive","type":"bool","internalType":"bool"}],"outputs":[],"stateMutability":"nonpayable"},{"type":"event","name":"RoleAdminChanged","inputs":[{"name":"role","type":"bytes32","indexed":true,"internalType":"bytes32"},{"name":"previousAdminRole","type":"bytes32","indexed":true,"internalType":"bytes32"},{"name":"newAdminRole","type":"bytes32","indexed":true,"internalType":"bytes32"}],"anonymous":false},{"type":"event","name":"RoleGranted","inputs":[{"name":"role","type":"bytes32","indexed":true,"internalType":"bytes32"},{"name":"account","type":"address","indexed":true,"internalType":"address"},{"name":"sender","type":"address","indexed":true,"internalType":"address"}],"anonymous":false},{"type":"event","name":"RoleRevoked","inputs":[{"name":"role","type":"bytes32","indexed":true,"internalType":"bytes32"},{"name":"account","type":"address","indexed":true,"internalType":"address"},{"name":"sender","type":"address","indexed":true,"internalType":"address"}],"anonymous":false},{"type":"event","name":"TokenAdded","inputs":[{"name":"tokenAddress","type":"address","indexed":true,"internalType":"address"},{"name":"symbol","type":"string","indexed":false,"internalType":"string"},{"name":"decimals","type":"uint8","indexed":false,"internalType":"uint8"}],"anonymous":false},{"type":"event","name":"TokenRemoved","inputs":[{"name":"tokenAddress","type":"address","indexed":true,"internalType":"address"}],"anonymous":false},{"type":"event","name":"TokenUpdated","inputs":[{"name":"tokenAddress","type":"address","indexed":true,"internalType":"address"},{"name":"isActive","type":"bool","indexed":false,"internalType":"bool"}],"anonymous":false},{"type":"error","name":"AccessControlBadConfirmation","inputs":[]},{"type":"error","name":"AccessControlUnauthorizedAccount","inputs":[{"name":"account","type":"address","internalType":"address"},{"name":"neededRole","type":"bytes32","internalType":"bytes32"}]}],"bytecode":{"object":"0x608060405234801562000010575f80fd5b50620000255f801b336200002c60201b60201c565b5062000191565b5f6200003f83836200012760201b60201c565b6200011d5760015f808581526020019081526020015f205f015f8473ffffffffffffffffffffffffffffffffffffffff1673ffffffffffffffffffffffffffffffffffffffff1681526020019081526020015f205f6101000a81548160ff021916908315150217905550620000b96200018a60201b60201c565b73ffffffffffffffffffffffffffffffffffffffff168273ffffffffffffffffffffffffffffffffffffffff16847f2f8788117e7eff1d82e926ec794901d17c78024a50270940304540a733656f0d60405160405180910390a46001905062000121565b5f90505b92915050565b5f805f8481526020019081526020015f205f015f8373ffffffffffffffffffffffffffffffffffffffff1673ffffffffffffffffffffffffffffffffffffffff1681526020019081526020015f205f9054906101000a900460ff16905092915050565b5f33905090565b6121e7806200019f5f395ff3fe608060405234801561000f575f80fd5b50600436106100e8575f3560e01c8063447bbe231161008a578063900ed17811610064578063900ed1781461025857806391d1485414610274578063a217fddf146102a4578063d547741f146102c2576100e8565b8063447bbe23146102025780635f5817e31461021e578063763191901461023c576100e8565b8063240028e8116100c6578063240028e81461016a578063248a9ca31461019a5780632f2ff15d146101ca57806336568abe146101e6576100e8565b80630107e472146100ec57806301ffc9a71461010a5780631f69565f1461013a575b5f80fd5b6100f46102de565b60405161010191906115df565b60405180910390f35b610124600480360381019061011f9190611665565b610369565b60405161013191906116aa565b60405180910390f35b610154600480360381019061014f91906116ed565b6103e2565b604051610161919061186a565b60405180910390f35b610184600480360381019061017f91906116ed565b610568565b60405161019191906116aa565b60405180910390f35b6101b460048036038101906101af91906118bd565b6105ba565b6040516101c191906118f7565b60405180910390f35b6101e460048036038101906101df9190611910565b6105d6565b005b61020060048036038101906101fb9190611910565b6105f8565b005b61021c60048036038101906102179190611ace565b610673565b005b6102266109fc565b60405161023391906115df565b60405180910390f35b610256600480360381019061025191906116ed565b610c52565b005b610272600480360381019061026d9190611b4e565b610f9d565b005b61028e60048036038101906102899190611910565b611122565b60405161029b91906116aa565b60405180910390f35b6102ac611185565b6040516102b991906118f7565b60405180910390f35b6102dc60048036038101906102d79190611910565b61118b565b005b6060600280548060200260200160405190810160405280929190818152602001828054801561035f57602002820191905f5260205f20905b815f9054906101000a900473ffffffffffffffffffffffffffffffffffffffff1673ffffffffffffffffffffffffffffffffffffffff1681526020019060010190808311610316575b5050505050905090565b5f7f7965db0b000000000000000000000000000000000000000000000000000000007bffffffffffffffffffffffffffffffffffffffffffffffffffffffff1916827bffffffffffffffffffffffffffffffffffffffffffffffffffffffff191614806103db57506103da826111ad565b5b9050919050565b6103ea611454565b60015f8373ffffffffffffffffffffffffffffffffffffffff1673ffffffffffffffffffffffffffffffffffffffff1681526020019081526020015f206040518060c00160405290815f82015f9054906101000a900473ffffffffffffffffffffffffffffffffffffffff1673ffffffffffffffffffffffffffffffffffffffff1673ffffffffffffffffffffffffffffffffffffffff16815260200160018201805461049690611bb9565b80601f01602080910402602001604051908101604052809291908181526020018280546104c290611bb9565b801561050d5780601f106104e45761010080835404028352916020019161050d565b820191905f5260205f20905b8154815290600101906020018083116104f057829003601f168201915b50505050508152602001600282015f9054906101000a900460ff1660ff1660ff1681526020016002820160019054906101000a900460ff16151515158152602001600382015481526020016004820154815250509050919050565b5f60035f8373ffffffffffffffffffffffffffffffffffffffff1673ffffffffffffffffffffffffffffffffffffffff1681526020019081526020015f205f9054906101000a900460ff169050919050565b5f805f8381526020019081526020015f20600101549050919050565b6105df826105ba565b6105e881611216565b6105f2838361122a565b50505050565b610600611313565b73ffffffffffffffffffffffffffffffffffffffff168173ffffffffffffffffffffffffffffffffffffffff1614610664576040517f6697b23200000000000000000000000000000000000000000000000000000000815260040160405180910390fd5b61066e828261131a565b505050565b5f801b61067f81611216565b5f73ffffffffffffffffffffffffffffffffffffffff168573ffffffffffffffffffffffffffffffffffffffff16036106ed576040517f08c379a00000000000000000000000000000000000000000000000000000000081526004016106e490611c43565b60405180910390fd5b5f845111610730576040517f08c379a000000000000000000000000000000000000000000000000000000000815260040161072790611cab565b60405180910390fd5b60035f8673ffffffffffffffffffffffffffffffffffffffff1673ffffffffffffffffffffffffffffffffffffffff1681526020019081526020015f205f9054906101000a900460ff16156107ba576040517f08c379a00000000000000000000000000000000000000000000000000000000081526004016107b190611d13565b60405180910390fd5b6040518060c001604052808673ffffffffffffffffffffffffffffffffffffffff1681526020018581526020018460ff16815260200183151581526020014281526020014281525060015f8773ffffffffffffffffffffffffffffffffffffffff1673ffffffffffffffffffffffffffffffffffffffff1681526020019081526020015f205f820151815f015f6101000a81548173ffffffffffffffffffffffffffffffffffffffff021916908373ffffffffffffffffffffffffffffffffffffffff16021790555060208201518160010190816108989190611ece565b506040820151816002015f6101000a81548160ff021916908360ff16021790555060608201518160020160016101000a81548160ff0219169083151502179055506080820151816003015560a08201518160040155905050600285908060018154018082558091505060019003905f5260205f20015f9091909190916101000a81548173ffffffffffffffffffffffffffffffffffffffff021916908373ffffffffffffffffffffffffffffffffffffffff160217905550600160035f8773ffffffffffffffffffffffffffffffffffffffff1673ffffffffffffffffffffffffffffffffffffffff1681526020019081526020015f205f6101000a81548160ff0219169083151502179055508473ffffffffffffffffffffffffffffffffffffffff167f3be0896d4cd1d645bdae8ade25a54bcdbb2c685ce55ac7e7bead95d0802b32de85856040516109ed929190611fe4565b60405180910390a25050505050565b60605f805b600280549050811015610ab85760015f60028381548110610a2557610a24612012565b5b905f5260205f20015f9054906101000a900473ffffffffffffffffffffffffffffffffffffffff1673ffffffffffffffffffffffffffffffffffffffff1673ffffffffffffffffffffffffffffffffffffffff1681526020019081526020015f2060020160019054906101000a900460ff1615610aab578180610aa79061206c565b9250505b8080600101915050610a01565b505f8167ffffffffffffffff811115610ad457610ad3611956565b5b604051908082528060200260200182016040528015610b025781602001602082028036833780820191505090505b5090505f805b600280549050811015610c485760015f60028381548110610b2c57610b2b612012565b5b905f5260205f20015f9054906101000a900473ffffffffffffffffffffffffffffffffffffffff1673ffffffffffffffffffffffffffffffffffffffff1673ffffffffffffffffffffffffffffffffffffffff1681526020019081526020015f2060020160019054906101000a900460ff1615610c3b5760028181548110610bb757610bb6612012565b5b905f5260205f20015f9054906101000a900473ffffffffffffffffffffffffffffffffffffffff16838381518110610bf257610bf1612012565b5b602002602001019073ffffffffffffffffffffffffffffffffffffffff16908173ffffffffffffffffffffffffffffffffffffffff16815250508180610c379061206c565b9250505b8080600101915050610b08565b5081935050505090565b5f801b610c5e81611216565b60035f8373ffffffffffffffffffffffffffffffffffffffff1673ffffffffffffffffffffffffffffffffffffffff1681526020019081526020015f205f9054906101000a900460ff16610ce7576040517f08c379a0000000000000000000000000000000000000000000000000000000008152600401610cde906120fd565b60405180910390fd5b5f5b600280549050811015610e60578273ffffffffffffffffffffffffffffffffffffffff1660028281548110610d2157610d20612012565b5b905f5260205f20015f9054906101000a900473ffffffffffffffffffffffffffffffffffffffff1673ffffffffffffffffffffffffffffffffffffffff1603610e535760026001600280549050610d78919061211b565b81548110610d8957610d88612012565b5b905f5260205f20015f9054906101000a900473ffffffffffffffffffffffffffffffffffffffff1660028281548110610dc557610dc4612012565b5b905f5260205f20015f6101000a81548173ffffffffffffffffffffffffffffffffffffffff021916908373ffffffffffffffffffffffffffffffffffffffff1602179055506002805480610e1c57610e1b61214e565b5b600190038181905f5260205f20015f6101000a81549073ffffffffffffffffffffffffffffffffffffffff02191690559055610e60565b8080600101915050610ce9565b5060015f8373ffffffffffffffffffffffffffffffffffffffff1673ffffffffffffffffffffffffffffffffffffffff1681526020019081526020015f205f8082015f6101000a81549073ffffffffffffffffffffffffffffffffffffffff0219169055600182015f610ed391906114a0565b600282015f6101000a81549060ff02191690556002820160016101000a81549060ff0219169055600382015f9055600482015f9055505060035f8373ffffffffffffffffffffffffffffffffffffffff1673ffffffffffffffffffffffffffffffffffffffff1681526020019081526020015f205f6101000a81549060ff02191690558173ffffffffffffffffffffffffffffffffffffffff167f4c910b69fe65a61f7531b9c5042b2329ca7179c77290aa7e2eb3afa3c8511fd360405160405180910390a25050565b5f801b610fa981611216565b60035f8473ffffffffffffffffffffffffffffffffffffffff1673ffffffffffffffffffffffffffffffffffffffff1681526020019081526020015f205f9054906101000a900460ff16611032576040517f08c379a0000000000000000000000000000000000000000000000000000000008152600401611029906120fd565b60405180910390fd5b8160015f8573ffffffffffffffffffffffffffffffffffffffff1673ffffffffffffffffffffffffffffffffffffffff1681526020019081526020015f2060020160016101000a81548160ff0219169083151502179055504260015f8573ffffffffffffffffffffffffffffffffffffffff1673ffffffffffffffffffffffffffffffffffffffff1681526020019081526020015f20600401819055508273ffffffffffffffffffffffffffffffffffffffff167fdcb2804db02b95bdd568fd11a31c5577ffdf36538c0f670e92930d9c1e8518ab8360405161111591906116aa565b60405180910390a2505050565b5f805f8481526020019081526020015f205f015f8373ffffffffffffffffffffffffffffffffffffffff1673ffffffffffffffffffffffffffffffffffffffff1681526020019081526020015f205f9054906101000a900460ff16905092915050565b5f801b81565b611194826105ba565b61119d81611216565b6111a7838361131a565b50505050565b5f7f01ffc9a7000000000000000000000000000000000000000000000000000000007bffffffffffffffffffffffffffffffffffffffffffffffffffffffff1916827bffffffffffffffffffffffffffffffffffffffffffffffffffffffff1916149050919050565b61122781611222611313565b611403565b50565b5f6112358383611122565b6113095760015f808581526020019081526020015f205f015f8473ffffffffffffffffffffffffffffffffffffffff1673ffffffffffffffffffffffffffffffffffffffff1681526020019081526020015f205f6101000a81548160ff0219169083151502179055506112a6611313565b73ffffffffffffffffffffffffffffffffffffffff168273ffffffffffffffffffffffffffffffffffffffff16847f2f8788117e7eff1d82e926ec794901d17c78024a50270940304540a733656f0d60405160405180910390a46001905061130d565b5f90505b92915050565b5f33905090565b5f6113258383611122565b156113f9575f805f8581526020019081526020015f205f015f8473ffffffffffffffffffffffffffffffffffffffff1673ffffffffffffffffffffffffffffffffffffffff1681526020019081526020015f205f6101000a81548160ff021916908315150217905550611396611313565b73ffffffffffffffffffffffffffffffffffffffff168273ffffffffffffffffffffffffffffffffffffffff16847ff6391f5c32d9c69d2a47ea670b442974b53935d1edc7fd64eb21e047a839171b60405160405180910390a4600190506113fd565b5f90505b92915050565b61140d8282611122565b6114505780826040517fe2517d3f00000000000000000000000000000000000000000000000000000000815260040161144792919061218a565b60405180910390fd5b5050565b6040518060c001604052805f73ffffffffffffffffffffffffffffffffffffffff168152602001606081526020015f60ff1681526020015f151581526020015f81526020015f81525090565b5080546114ac90611bb9565b5f825580601f106114bd57506114da565b601f0160209004905f5260205f20908101906114d991906114dd565b5b50565b5b808211156114f4575f815f9055506001016114de565b5090565b5f81519050919050565b5f82825260208201905092915050565b5f819050602082019050919050565b5f73ffffffffffffffffffffffffffffffffffffffff82169050919050565b5f61154a82611521565b9050919050565b61155a81611540565b82525050565b5f61156b8383611551565b60208301905092915050565b5f602082019050919050565b5f61158d826114f8565b6115978185611502565b93506115a283611512565b805f5b838110156115d25781516115b98882611560565b97506115c483611577565b9250506001810190506115a5565b5085935050505092915050565b5f6020820190508181035f8301526115f78184611583565b905092915050565b5f604051905090565b5f80fd5b5f80fd5b5f7fffffffff0000000000000000000000000000000000000000000000000000000082169050919050565b61164481611610565b811461164e575f80fd5b50565b5f8135905061165f8161163b565b92915050565b5f6020828403121561167a57611679611608565b5b5f61168784828501611651565b91505092915050565b5f8115159050919050565b6116a481611690565b82525050565b5f6020820190506116bd5f83018461169b565b92915050565b6116cc81611540565b81146116d6575f80fd5b50565b5f813590506116e7816116c3565b92915050565b5f6020828403121561170257611701611608565b5b5f61170f848285016116d9565b91505092915050565b5f81519050919050565b5f82825260208201905092915050565b5f5b8381101561174f578082015181840152602081019050611734565b5f8484015250505050565b5f601f19601f8301169050919050565b5f61177482611718565b61177e8185611722565b935061178e818560208601611732565b6117978161175a565b840191505092915050565b5f60ff82169050919050565b6117b7816117a2565b82525050565b6117c681611690565b82525050565b5f819050919050565b6117de816117cc565b82525050565b5f60c083015f8301516117f95f860182611551565b5060208301518482036020860152611811828261176a565b915050604083015161182660408601826117ae565b50606083015161183960608601826117bd565b50608083015161184c60808601826117d5565b5060a083015161185f60a08601826117d5565b508091505092915050565b5f6020820190508181035f83015261188281846117e4565b905092915050565b5f819050919050565b61189c8161188a565b81146118a6575f80fd5b50565b5f813590506118b781611893565b92915050565b5f602082840312156118d2576118d1611608565b5b5f6118df848285016118a9565b91505092915050565b6118f18161188a565b82525050565b5f60208201905061190a5f8301846118e8565b92915050565b5f806040838503121561192657611925611608565b5b5f611933858286016118a9565b9250506020611944858286016116d9565b9150509250929050565b5f80fd5b5f80fd5b7f4e487b71000000000000000000000000000000000000000000000000000000005f52604160045260245ffd5b61198c8261175a565b810181811067ffffffffffffffff821117156119ab576119aa611956565b5b80604052505050565b5f6119bd6115ff565b90506119c98282611983565b919050565b5f67ffffffffffffffff8211156119e8576119e7611956565b5b6119f18261175a565b9050602081019050919050565b828183375f83830152505050565b5f611a1e611a19846119ce565b6119b4565b905082815260208101848484011115611a3a57611a39611952565b5b611a458482856119fe565b509392505050565b5f82601f830112611a6157611a6061194e565b5b8135611a71848260208601611a0c565b91505092915050565b611a83816117a2565b8114611a8d575f80fd5b50565b5f81359050611a9e81611a7a565b92915050565b611aad81611690565b8114611ab7575f80fd5b50565b5f81359050611ac881611aa4565b92915050565b5f805f8060808587031215611ae657611ae5611608565b5b5f611af3878288016116d9565b945050602085013567ffffffffffffffff811115611b1457611b1361160c565b5b611b2087828801611a4d565b9350506040611b3187828801611a90565b9250506060611b4287828801611aba565b91505092959194509250565b5f8060408385031215611b6457611b63611608565b5b5f611b71858286016116d9565b9250506020611b8285828601611aba565b9150509250929050565b7f4e487b71000000000000000000000000000000000000000000000000000000005f52602260045260245ffd5b5f6002820490506001821680611bd057607f821691505b602082108103611be357611be2611b8c565b5b50919050565b5f82825260208201905092915050565b7f496e76616c696420746f6b656e206164647265737300000000000000000000005f82015250565b5f611c2d601583611be9565b9150611c3882611bf9565b602082019050919050565b5f6020820190508181035f830152611c5a81611c21565b9050919050565b7f53796d626f6c2063616e6e6f7420626520656d707479000000000000000000005f82015250565b5f611c95601683611be9565b9150611ca082611c61565b602082019050919050565b5f6020820190508181035f830152611cc281611c89565b9050919050565b7f546f6b656e20616c7265616479206578697374730000000000000000000000005f82015250565b5f611cfd601483611be9565b9150611d0882611cc9565b602082019050919050565b5f6020820190508181035f830152611d2a81611cf1565b9050919050565b5f819050815f5260205f209050919050565b5f6020601f8301049050919050565b5f82821b905092915050565b5f60088302611d8d7fffffffffffffffffffffffffffffffffffffffffffffffffffffffffffffffff82611d52565b611d978683611d52565b95508019841693508086168417925050509392505050565b5f819050919050565b5f611dd2611dcd611dc8846117cc565b611daf565b6117cc565b9050919050565b5f819050919050565b611deb83611db8565b611dff611df782611dd9565b848454611d5e565b825550505050565b5f90565b611e13611e07565b611e1e818484611de2565b505050565b5b81811015611e4157611e365f82611e0b565b600181019050611e24565b5050565b601f821115611e8657611e5781611d31565b611e6084611d43565b81016020851015611e6f578190505b611e83611e7b85611d43565b830182611e23565b50505b505050565b5f82821c905092915050565b5f611ea65f1984600802611e8b565b1980831691505092915050565b5f611ebe8383611e97565b9150826002028217905092915050565b611ed782611718565b67ffffffffffffffff811115611ef057611eef611956565b5b611efa8254611bb9565b611f05828285611e45565b5f60209050601f831160018114611f36575f8415611f24578287015190505b611f2e8582611eb3565b865550611f95565b601f198416611f4486611d31565b5f5b82811015611f6b57848901518255600182019150602085019450602081019050611f46565b86831015611f885784890151611f84601f891682611e97565b8355505b6001600288020188555050505b505050505050565b5f611fa782611718565b611fb18185611be9565b9350611fc1818560208601611732565b611fca8161175a565b840191505092915050565b611fde816117a2565b82525050565b5f6040820190508181035f830152611ffc8185611f9d565b905061200b6020830184611fd5565b9392505050565b7f4e487b71000000000000000000000000000000000000000000000000000000005f52603260045260245ffd5b7f4e487b71000000000000000000000000000000000000000000000000000000005f52601160045260245ffd5b5f612076826117cc565b91507fffffffffffffffffffffffffffffffffffffffffffffffffffffffffffffffff82036120a8576120a761203f565b5b600182019050919050565b7f546f6b656e20646f6573206e6f742065786973740000000000000000000000005f82015250565b5f6120e7601483611be9565b91506120f2826120b3565b602082019050919050565b5f6020820190508181035f830152612114816120db565b9050919050565b5f612125826117cc565b9150612130836117cc565b92508282039050818111156121485761214761203f565b5b92915050565b7f4e487b71000000000000000000000000000000000000000000000000000000005f52603160045260245ffd5b61218481611540565b82525050565b5f60408201905061219d5f83018561217b565b6121aa60208301846118e8565b939250505056fea26469706673582212207b1cb0e2fc8e118ffb7e9dbd1c4103fe68ce37f3ce204da0ac86cdd9589b1b7264736f6c63430008160033","linkReferences":{}},"methodIdentifiers":{"DEFAULT_ADMIN_ROLE()":"a217fddf","addSupportedToken(address,string,uint8,bool)":"447bbe23","getActiveTokens()":"5f5817e3","getAllSupportedTokens()":"0107e472","getRoleAdmin(bytes32)":"248a9ca3","getTokenInfo(address)":"1f69565f","grantRole(bytes32,address)":"2f2ff15d","hasRole(bytes32,address)":"91d14854","isSupportedToken(address)":"240028e8","removeSupportedToken(address)":"76319190","renounceRole(bytes32,address)":"36568abe","revokeRole(bytes32,address)":"d547741f","supportsInterface(bytes4)":"01ffc9a7","updateTokenStatus(address,bool)":"900ed178"},"id":24}