{"abi":[{"type":"function","name":"getOriginForUEA","inputs":[{"name":"addr","type":"address","internalType":"address"}],"outputs":[{"name":"account","type":"tuple","internalType":"struct MockUEAFactory.UniversalAccountId","components":[{"name":"chainNamespace","type":"string","internalType":"string"},{"name":"chainId","type":"string","internalType":"string"},{"name":"owner","type":"bytes","internalType":"bytes"}]},{"name":"isUEA","type":"bool","internalType":"bool"}],"stateMutability":"view"},{"type":"function","name":"setOrigin","inputs":[{"name":"addr","type":"address","internalType":"address"},{"name":"chainNamespace","type":"string","internalType":"string"},{"name":"chainId","type":"string","internalType":"string"},{"name":"owner","type":"bytes","internalType":"bytes"},{"name":"_isUEA","type":"bool","internalType":"bool"}],"outputs":[],"stateMutability":"nonpayable"}],"bytecode":{"object":"0x608060405234801561000f575f80fd5b50610cf38061001d5f395ff3fe608060405234801561000f575f80fd5b5060043610610034575f3560e01c8063175cdeb514610038578063d0f4b09714610054575b5f80fd5b610052600480360381019061004d919061066a565b610085565b005b61006e60048036038101906100699190610735565b61017a565b60405161007c929190610896565b60405180910390f35b6040518060600160405280858152602001848152602001838152505f808773ffffffffffffffffffffffffffffffffffffffff1673ffffffffffffffffffffffffffffffffffffffff1681526020019081526020015f205f820151815f0190816100ef9190610ac7565b5060208201518160010190816101059190610ac7565b50604082015181600201908161011b9190610bee565b509050508060015f8773ffffffffffffffffffffffffffffffffffffffff1673ffffffffffffffffffffffffffffffffffffffff1681526020019081526020015f205f6101000a81548160ff0219169083151502179055505050505050565b6101826103cf565b5f805f8473ffffffffffffffffffffffffffffffffffffffff1673ffffffffffffffffffffffffffffffffffffffff1681526020019081526020015f2060015f8573ffffffffffffffffffffffffffffffffffffffff1673ffffffffffffffffffffffffffffffffffffffff1681526020019081526020015f205f9054906101000a900460ff16816040518060600160405290815f82018054610224906108f1565b80601f0160208091040260200160405190810160405280929190818152602001828054610250906108f1565b801561029b5780601f106102725761010080835404028352916020019161029b565b820191905f5260205f20905b81548152906001019060200180831161027e57829003601f168201915b505050505081526020016001820180546102b4906108f1565b80601f01602080910402602001604051908101604052809291908181526020018280546102e0906108f1565b801561032b5780601f106103025761010080835404028352916020019161032b565b820191905f5260205f20905b81548152906001019060200180831161030e57829003601f168201915b50505050508152602001600282018054610344906108f1565b80601f0160208091040260200160405190810160405280929190818152602001828054610370906108f1565b80156103bb5780601f10610392576101008083540402835291602001916103bb565b820191905f5260205f20905b81548152906001019060200180831161039e57829003601f168201915b505050505081525050915091509150915091565b60405180606001604052806060815260200160608152602001606081525090565b5f604051905090565b5f80fd5b5f80fd5b5f73ffffffffffffffffffffffffffffffffffffffff82169050919050565b5f61042a82610401565b9050919050565b61043a81610420565b8114610444575f80fd5b50565b5f8135905061045581610431565b92915050565b5f80fd5b5f80fd5b5f601f19601f8301169050919050565b7f4e487b71000000000000000000000000000000000000000000000000000000005f52604160045260245ffd5b6104a982610463565b810181811067ffffffffffffffff821117156104c8576104c7610473565b5b80604052505050565b5f6104da6103f0565b90506104e682826104a0565b919050565b5f67ffffffffffffffff82111561050557610504610473565b5b61050e82610463565b9050602081019050919050565b828183375f83830152505050565b5f61053b610536846104eb565b6104d1565b9050828152602081018484840111156105575761055661045f565b5b61056284828561051b565b509392505050565b5f82601f83011261057e5761057d61045b565b5b813561058e848260208601610529565b91505092915050565b5f67ffffffffffffffff8211156105b1576105b0610473565b5b6105ba82610463565b9050602081019050919050565b5f6105d96105d484610597565b6104d1565b9050828152602081018484840111156105f5576105f461045f565b5b61060084828561051b565b509392505050565b5f82601f83011261061c5761061b61045b565b5b813561062c8482602086016105c7565b91505092915050565b5f8115159050919050565b61064981610635565b8114610653575f80fd5b50565b5f8135905061066481610640565b92915050565b5f805f805f60a08688031215610683576106826103f9565b5b5f61069088828901610447565b955050602086013567ffffffffffffffff8111156106b1576106b06103fd565b5b6106bd8882890161056a565b945050604086013567ffffffffffffffff8111156106de576106dd6103fd565b5b6106ea8882890161056a565b935050606086013567ffffffffffffffff81111561070b5761070a6103fd565b5b61071788828901610608565b925050608061072888828901610656565b9150509295509295909350565b5f6020828403121561074a576107496103f9565b5b5f61075784828501610447565b91505092915050565b5f81519050919050565b5f82825260208201905092915050565b5f5b8381101561079757808201518184015260208101905061077c565b5f8484015250505050565b5f6107ac82610760565b6107b6818561076a565b93506107c681856020860161077a565b6107cf81610463565b840191505092915050565b5f81519050919050565b5f82825260208201905092915050565b5f6107fe826107da565b61080881856107e4565b935061081881856020860161077a565b61082181610463565b840191505092915050565b5f606083015f8301518482035f86015261084682826107a2565b9150506020830151848203602086015261086082826107a2565b9150506040830151848203604086015261087a82826107f4565b9150508091505092915050565b61089081610635565b82525050565b5f6040820190508181035f8301526108ae818561082c565b90506108bd6020830184610887565b9392505050565b7f4e487b71000000000000000000000000000000000000000000000000000000005f52602260045260245ffd5b5f600282049050600182168061090857607f821691505b60208210810361091b5761091a6108c4565b5b50919050565b5f819050815f5260205f209050919050565b5f6020601f8301049050919050565b5f82821b905092915050565b5f6008830261097d7fffffffffffffffffffffffffffffffffffffffffffffffffffffffffffffffff82610942565b6109878683610942565b95508019841693508086168417925050509392505050565b5f819050919050565b5f819050919050565b5f6109cb6109c66109c18461099f565b6109a8565b61099f565b9050919050565b5f819050919050565b6109e4836109b1565b6109f86109f0826109d2565b84845461094e565b825550505050565b5f90565b610a0c610a00565b610a178184846109db565b505050565b5b81811015610a3a57610a2f5f82610a04565b600181019050610a1d565b5050565b601f821115610a7f57610a5081610921565b610a5984610933565b81016020851015610a68578190505b610a7c610a7485610933565b830182610a1c565b50505b505050565b5f82821c905092915050565b5f610a9f5f1984600802610a84565b1980831691505092915050565b5f610ab78383610a90565b9150826002028217905092915050565b610ad082610760565b67ffffffffffffffff811115610ae957610ae8610473565b5b610af382546108f1565b610afe828285610a3e565b5f60209050601f831160018114610b2f575f8415610b1d578287015190505b610b278582610aac565b865550610b8e565b601f198416610b3d86610921565b5f5b82811015610b6457848901518255600182019150602085019450602081019050610b3f565b86831015610b815784890151610b7d601f891682610a90565b8355505b6001600288020188555050505b505050505050565b5f819050815f5260205f209050919050565b601f821115610be957610bba81610b96565b610bc384610933565b81016020851015610bd2578190505b610be6610bde85610933565b830182610a1c565b50505b505050565b610bf7826107da565b67ffffffffffffffff811115610c1057610c0f610473565b5b610c1a82546108f1565b610c25828285610ba8565b5f60209050601f831160018114610c56575f8415610c44578287015190505b610c4e8582610aac565b865550610cb5565b601f198416610c6486610b96565b5f5b82811015610c8b57848901518255600182019150602085019450602081019050610c66565b86831015610ca85784890151610ca4601f891682610a90565b8355505b6001600288020188555050505b50505050505056fea2646970667358221220833a7a59044de72378d4b74729bbde4266bb355d74a4274523fa10d92e240fa264736f6c63430008160033","linkReferences":{}},"methodIdentifiers":{"getOriginForUEA(address)":"d0f4b097","setOrigin(address,string,string,bytes,bool)":"175cdeb5"},"id":28}