{"abi":[{"type":"constructor","inputs":[],"stateMutability":"nonpayable"},{"type":"function","name":"DEFAULT_ADMIN_ROLE","inputs":[],"outputs":[{"name":"","type":"bytes32","internalType":"bytes32"}],"stateMutability":"view"},{"type":"function","name":"FACILITATOR_ROLE","inputs":[],"outputs":[{"name":"","type":"bytes32","internalType":"bytes32"}],"stateMutability":"view"},{"type":"function","name":"MERCHANT_ROLE","inputs":[],"outputs":[{"name":"","type":"bytes32","internalType":"bytes32"}],"stateMutability":"view"},{"type":"function","name":"UEA_FACTORY","inputs":[],"outputs":[{"name":"","type":"address","internalType":"contract IUEAFactory"}],"stateMutability":"view"},{"type":"function","name":"createPaymentRequirement","inputs":[{"name":"resource","type":"string","internalType":"string"},{"name":"scheme","type":"string","internalType":"string"},{"name":"network","type":"string","internalType":"string"},{"name":"maxAmountRequired","type":"uint256","internalType":"uint256"},{"name":"description","type":"string","internalType":"string"},{"name":"mimeType","type":"string","internalType":"string"},{"name":"payTo","type":"address","internalType":"address"},{"name":"maxTimeoutSeconds","type":"uint256","internalType":"uint256"},{"name":"asset","type":"address","internalType":"address"}],"outputs":[],"stateMutability":"nonpayable"},{"type":"function","name":"getMerchantPayments","inputs":[{"name":"merchant","type":"address","internalType":"address"}],"outputs":[{"name":"","type":"bytes32[]","internalType":"bytes32[]"}],"stateMutability":"view"},{"type":"function","name":"getPaymentRecord","inputs":[{"name":"paymentId","type":"bytes32","internalType":"bytes32"}],"outputs":[{"name":"","type":"tuple","internalType":"struct X402PaymentRegistry.PaymentRecord","components":[{"name":"requirementId","type":"bytes32","internalType":"bytes32"},{"name":"payer","type":"address","internalType":"address"},{"name":"originChain","type":"string","internalType":"string"},{"name":"originAddress","type":"address","internalType":"address"},{"name":"isUEA","type":"bool","internalType":"bool"},{"name":"amount","type":"uint256","internalType":"uint256"},{"name":"timestamp","type":"uint256","internalType":"uint256"},{"name":"txHash","type":"bytes32","internalType":"bytes32"},{"name":"settled","type":"bool","internalType":"bool"}]}],"stateMutability":"view"},{"type":"function","name":"getPaymentRequirement","inputs":[{"name":"merchant","type":"address","internalType":"address"},{"name":"resource","type":"string","internalType":"string"}],"outputs":[{"name":"","type":"tuple","internalType":"struct X402PaymentRegistry.PaymentRequirement","components":[{"name":"scheme","type":"string","internalType":"string"},{"name":"network","type":"string","internalType":"string"},{"name":"maxAmountRequired","type":"uint256","internalType":"uint256"},{"name":"resource","type":"string","internalType":"string"},{"name":"description","type":"string","internalType":"string"},{"name":"mimeType","type":"string","internalType":"string"},{"name":"payTo","type":"address","internalType":"address"},{"name":"maxTimeoutSeconds","type":"uint256","internalType":"uint256"},{"name":"asset","type":"address","internalType":"address"},{"name":"isActive","type":"bool","internalType":"bool"},{"name":"createdAt","type":"uint256","internalType":"uint256"},{"name":"updatedAt","type":"uint256","internalType":"uint256"}]}],"stateMutability":"view"},{"type":"function","name":"getRoleAdmin","inputs":[{"name":"role","type":"bytes32","internalType":"bytes32"}],"outputs":[{"name":"","type":"bytes32","internalType":"bytes32"}],"stateMutability":"view"},{"type":"function","name":"grantRole","inputs":[{"name":"role","type":"bytes32","internalType":"bytes32"},{"name":"account","type":"address","internalType":"address"}],"outputs":[],"stateMutability":"nonpayable"},{"type":"function","name":"hasRole","inputs":[{"name":"role","type":"bytes32","internalType":"bytes32"},{"name":"account","type":"address","internalType":"address"}],"outputs":[{"name":"","type":"bool","internalType":"bool"}],"stateMutability":"view"},{"type":"function","name":"markPaymentSettled","inputs":[{"name":"paymentId","type":"bytes32","internalType":"bytes32"},{"name":"settlementTxHash","type":"bytes32","internalType":"bytes32"}],"outputs":[],"stateMutability":"nonpayable"},{"type":"function","name":"paymentRecords","inputs":[{"name":"","type":"bytes32","internalType":"bytes32"}],"outputs":[{"name":"requirementId","type":"bytes32","internalType":"bytes32"},{"name":"payer","type":"address","internalType":"address"},{"name":"originChain","type":"string","internalType":"string"},{"name":"originAddress","type":"address","internalType":"address"},{"name":"isUEA","type":"bool","internalType":"bool"},{"name":"amount","type":"uint256","internalType":"uint256"},{"name":"timestamp","type":"uint256","internalType":"uint256"},{"name":"txHash","type":"bytes32","internalType":"bytes32"},{"name":"settled","type":"bool","internalType":"bool"}],"stateMutability":"view"},{"type":"function","name":"paymentRequirements","inputs":[{"name":"","type":"address","internalType":"address"},{"name":"","type":"string","internalType":"string"}],"outputs":[{"name":"scheme","type":"string","internalType":"string"},{"name":"network","type":"string","internalType":"string"},{"name":"maxAmountRequired","type":"uint256","internalType":"uint256"},{"name":"resource","type":"string","internalType":"string"},{"name":"description","type":"string","internalType":"string"},{"name":"mimeType","type":"string","internalType":"string"},{"name":"payTo","type":"address","internalType":"address"},{"name":"maxTimeoutSeconds","type":"uint256","internalType":"uint256"},{"name":"asset","type":"address","internalType":"address"},{"name":"isActive","type":"bool","internalType":"bool"},{"name":"createdAt","type":"uint256","internalType":"uint256"},{"name":"updatedAt","type":"uint256","internalType":"uint256"}],"stateMutability":"view"},{"type":"function","name":"recordPayment","inputs":[{"name":"merchant","type":"address","internalType":"address"},{"name":"resource","type":"string","internalType":"string"},{"name":"payer","type":"address","internalType":"address"},{"name":"amount","type":"uint256","internalType":"uint256"},{"name":"txHash","type":"bytes32","internalType":"bytes32"}],"outputs":[{"name":"","type":"bytes32","internalType":"bytes32"}],"stateMutability":"nonpayable"},{"type":"function","name":"registerMerchant","inputs":[{"name":"merchant","type":"address","internalType":"address"}],"outputs":[],"stateMutability":"nonpayable"},{"type":"function","name":"renounceRole","inputs":[{"name":"role","type":"bytes32","internalType":"bytes32"},{"name":"callerConfirmation","type":"address","internalType":"address"}],"outputs":[],"stateMutability":"nonpayable"},{"type":"function","name":"revokeRole","inputs":[{"name":"role","type":"bytes32","internalType":"bytes32"},{"name":"account","type":"address","internalType":"address"}],"outputs":[],"stateMutability":"nonpayable"},{"type":"function","name":"supportsInterface","inputs":[{"name":"interfaceId","type":"bytes4","internalType":"bytes4"}],"outputs":[{"name":"","type":"bool","internalType":"bool"}],"stateMutability":"view"},{"type":"event","name":"MerchantRegistered","inputs":[{"name":"merchant","type":"address","indexed":true,"internalType":"address"},{"name":"timestamp","type":"uint256","indexed":false,"internalType":"uint256"}],"anonymous":false},{"type":"event","name":"PaymentRecorded","inputs":[{"name":"paymentId","type":"bytes32","indexed":true,"internalType":"bytes32"},{"name":"merchant","type":"address","indexed":true,"internalType":"address"},{"name":"payer","type":"address","indexed":true,"internalType":"address"},{"name":"amount","type":"uint256","indexed":false,"internalType":"uint256"},{"name":"originChain","type":"string","indexed":false,"internalType":"string"},{"name":"originAddress","type":"address","indexed":false,"internalType":"address"},{"name":"isUEA","type":"bool","indexed":false,"internalType":"bool"}],"anonymous":false},{"type":"event","name":"PaymentRequirementCreated","inputs":[{"name":"merchant","type":"address","indexed":true,"internalType":"address"},{"name":"resource","type":"string","indexed":false,"internalType":"string"},{"name":"amount","type":"uint256","indexed":false,"internalType":"uint256"},{"name":"asset","type":"address","indexed":false,"internalType":"address"}],"anonymous":false},{"type":"event","name":"PaymentRequirementUpdated","inputs":[{"name":"merchant","type":"address","indexed":true,"internalType":"address"},{"name":"resource","type":"string","indexed":false,"internalType":"string"}],"anonymous":false},{"type":"event","name":"PaymentSettled","inputs":[{"name":"paymentId","type":"bytes32","indexed":true,"internalType":"bytes32"},{"name":"settlementTxHash","type":"bytes32","indexed":false,"internalType":"bytes32"}],"anonymous":false},{"type":"event","name":"RoleAdminChanged","inputs":[{"name":"role","type":"bytes32","indexed":true,"internalType":"bytes32"},{"name":"previousAdminRole","type":"bytes32","indexed":true,"internalType":"bytes32"},{"name":"newAdminRole","type":"bytes32","indexed":true,"internalType":"bytes32"}],"anonymous":false},{"type":"event","name":"RoleGranted","inputs":[{"name":"role","type":"bytes32","indexed":true,"internalType":"bytes32"},{"name":"account","type":"address","indexed":true,"internalType":"address"},{"name":"sender","type":"address","indexed":true,"internalType":"address"}],"anonymous":false},{"type":"event","name":"RoleRevoked","inputs":[{"name":"role","type":"bytes32","indexed":true,"internalType":"bytes32"},{"name":"account","type":"address","indexed":true,"internalType":"address"},{"name":"sender","type":"address","indexed":true,"internalType":"address"}],"anonymous":false},{"type":"error","name":"AccessControlBadConfirmation","inputs":[]},{"type":"error","name":"AccessControlUnauthorizedAccount","inputs":[{"name":"account","type":"address","internalType":"address"},{"name":"neededRole","type":"bytes32","internalType":"bytes32"}]},{"type":"error","name":"ReentrancyGuardReentrantCall","inputs":[]}],"bytecode":{"object":"0x608060405234801562000010575f80fd5b50600162000033620000276200008760201b60201c565b620000b060201b60201c565b5f01819055506200004d5f801b33620000b960201b60201c565b50620000807f0424cf38c8834beebcaa33d45624a52f86494e75143c4aef2aafdb8bd68c732e33620000b960201b60201c565b506200021e565b5f7f9b779b17422d0df92223018b32b4d1fa46e071723d6817e2486d003becc55f005f1b905090565b5f819050919050565b5f620000cc8383620001b460201b60201c565b620001aa5760015f808581526020019081526020015f205f015f8473ffffffffffffffffffffffffffffffffffffffff1673ffffffffffffffffffffffffffffffffffffffff1681526020019081526020015f205f6101000a81548160ff021916908315150217905550620001466200021760201b60201c565b73ffffffffffffffffffffffffffffffffffffffff168273ffffffffffffffffffffffffffffffffffffffff16847f2f8788117e7eff1d82e926ec794901d17c78024a50270940304540a733656f0d60405160405180910390a460019050620001ae565b5f90505b92915050565b5f805f8481526020019081526020015f205f015f8373ffffffffffffffffffffffffffffffffffffffff1673ffffffffffffffffffffffffffffffffffffffff1681526020019081526020015f205f9054906101000a900460ff16905092915050565b5f33905090565b613b36806200022c5f395ff3fe608060405234801561000f575f80fd5b506004361061011f575f3560e01c806391d14854116100ab578063b3d358391161006f578063b3d3583914610362578063b7e9c03714610380578063be79ea441461039e578063d547741f146103ba578063ee688a49146103d65761011f565b806391d148541461028e578063a217fddf146102be578063a356a128146102dc578063a7302b071461030c578063b329b6a71461032a5761011f565b80632f2ff15d116100f25780632f2ff15d146101e357806336568abe146101ff578063584ba2f11461021b5780635b078630146102375780638d0b1631146102535761011f565b806301ffc9a714610123578063021e62d914610153578063064b140f14610183578063248a9ca3146101b3575b5f80fd5b61013d6004803603810190610138919061242a565b610406565b60405161014a919061246f565b60405180910390f35b61016d600480360381019061016891906124bb565b61047f565b60405161017a91906126a7565b60405180910390f35b61019d60048036038101906101989190612847565b610641565b6040516101aa91906128e9565b60405180910390f35b6101cd60048036038101906101c891906124bb565b610efe565b6040516101da91906128e9565b60405180910390f35b6101fd60048036038101906101f89190612902565b610f1a565b005b61021960048036038101906102149190612902565b610f3c565b005b61023560048036038101906102309190612940565b610fb7565b005b610251600480360381019061024c919061296b565b61103f565b005b61026d600480360381019061026891906129a9565b611189565b6040516102859c9b9a99989796959493929190612a69565b60405180910390f35b6102a860048036038101906102a39190612902565b6114f1565b6040516102b5919061246f565b60405180910390f35b6102c6611554565b6040516102d391906128e9565b60405180910390f35b6102f660048036038101906102f19190612940565b61155a565b6040516103039190612bec565b60405180910390f35b6103146115ed565b60405161032191906128e9565b60405180910390f35b610344600480360381019061033f91906124bb565b611611565b60405161035999989796959493929190612c0c565b60405180910390f35b61036a611738565b60405161037791906128e9565b60405180910390f35b61038861175c565b6040516103959190612cf9565b60405180910390f35b6103b860048036038101906103b39190612d12565b611761565b005b6103d460048036038101906103cf9190612902565b611afd565b005b6103f060048036038101906103eb91906129a9565b611b1f565b6040516103fd9190612f7f565b60405180910390f35b5f7f7965db0b000000000000000000000000000000000000000000000000000000007bffffffffffffffffffffffffffffffffffffffffffffffffffffffff1916827bffffffffffffffffffffffffffffffffffffffffffffffffffffffff19161480610478575061047782611f50565b5b9050919050565b6104876122c2565b60025f8381526020019081526020015f20604051806101200160405290815f8201548152602001600182015f9054906101000a900473ffffffffffffffffffffffffffffffffffffffff1673ffffffffffffffffffffffffffffffffffffffff1673ffffffffffffffffffffffffffffffffffffffff16815260200160028201805461051290612fcc565b80601f016020809104026020016040519081016040528092919081815260200182805461053e90612fcc565b80156105895780601f1061056057610100808354040283529160200191610589565b820191905f5260205f20905b81548152906001019060200180831161056c57829003601f168201915b50505050508152602001600382015f9054906101000a900473ffffffffffffffffffffffffffffffffffffffff1673ffffffffffffffffffffffffffffffffffffffff1673ffffffffffffffffffffffffffffffffffffffff1681526020016003820160149054906101000a900460ff16151515158152602001600482015481526020016005820154815260200160068201548152602001600782015f9054906101000a900460ff1615151515815250509050919050565b5f7f0424cf38c8834beebcaa33d45624a52f86494e75143c4aef2aafdb8bd68c732e61066c81611fb9565b610674611fcd565b5f60015f8973ffffffffffffffffffffffffffffffffffffffff1673ffffffffffffffffffffffffffffffffffffffff1681526020019081526020015f20876040516106c09190613036565b9081526020016040518091039020604051806101800160405290815f820180546106e990612fcc565b80601f016020809104026020016040519081016040528092919081815260200182805461071590612fcc565b80156107605780601f1061073757610100808354040283529160200191610760565b820191905f5260205f20905b81548152906001019060200180831161074357829003601f168201915b5050505050815260200160018201805461077990612fcc565b80601f01602080910402602001604051908101604052809291908181526020018280546107a590612fcc565b80156107f05780601f106107c7576101008083540402835291602001916107f0565b820191905f5260205f20905b8154815290600101906020018083116107d357829003601f168201915b505050505081526020016002820154815260200160038201805461081390612fcc565b80601f016020809104026020016040519081016040528092919081815260200182805461083f90612fcc565b801561088a5780601f106108615761010080835404028352916020019161088a565b820191905f5260205f20905b81548152906001019060200180831161086d57829003601f168201915b505050505081526020016004820180546108a390612fcc565b80601f01602080910402602001604051908101604052809291908181526020018280546108cf90612fcc565b801561091a5780601f106108f15761010080835404028352916020019161091a565b820191905f5260205f20905b8154815290600101906020018083116108fd57829003601f168201915b5050505050815260200160058201805461093390612fcc565b80601f016020809104026020016040519081016040528092919081815260200182805461095f90612fcc565b80156109aa5780601f10610981576101008083540402835291602001916109aa565b820191905f5260205f20905b81548152906001019060200180831161098d57829003601f168201915b50505050508152602001600682015f9054906101000a900473ffffffffffffffffffffffffffffffffffffffff1673ffffffffffffffffffffffffffffffffffffffff1673ffffffffffffffffffffffffffffffffffffffff16815260200160078201548152602001600882015f9054906101000a900473ffffffffffffffffffffffffffffffffffffffff1673ffffffffffffffffffffffffffffffffffffffff1673ffffffffffffffffffffffffffffffffffffffff1681526020016008820160149054906101000a900460ff1615151515815260200160098201548152602001600a820154815250509050806101200151610add576040517f08c379a0000000000000000000000000000000000000000000000000000000008152600401610ad490613096565b60405180910390fd5b8060400151851015610b24576040517f08c379a0000000000000000000000000000000000000000000000000000000008152600401610b1b906130fe565b60405180910390fd5b5f8060ea73ffffffffffffffffffffffffffffffffffffffff1663d0f4b097896040518263ffffffff1660e01b8152600401610b60919061311c565b5f60405180830381865afa158015610b7a573d5f803e3d5ffd5b505050506040513d5f823e3d601f19601f82011682018060405250810190610ba29190613328565b9150915060605f8215610bf257835f01518460200151604051602001610bc99291906133cc565b60405160208183030381529060405291508360400151610be89061345e565b60601c9050610c2e565b6040518060400160405280600a81526020017f707573682d636861696e0000000000000000000000000000000000000000000081525091508990505b5f8c8c8c8c428d604051602001610c4a96959493929190613549565b6040516020818303038152906040528051906020012090506040518061012001604052808e8e604051602001610c819291906135b4565b6040516020818303038152906040528051906020012081526020018c73ffffffffffffffffffffffffffffffffffffffff1681526020018481526020018373ffffffffffffffffffffffffffffffffffffffff16815260200185151581526020018b81526020014281526020018a81526020015f151581525060025f8381526020019081526020015f205f820151815f01556020820151816001015f6101000a81548173ffffffffffffffffffffffffffffffffffffffff021916908373ffffffffffffffffffffffffffffffffffffffff1602179055506040820151816002019081610d6e9190613763565b506060820151816003015f6101000a81548173ffffffffffffffffffffffffffffffffffffffff021916908373ffffffffffffffffffffffffffffffffffffffff16021790555060808201518160030160146101000a81548160ff02191690831515021790555060a0820151816004015560c0820151816005015560e08201518160060155610100820151816007015f6101000a81548160ff02191690831515021790555090505060035f8e73ffffffffffffffffffffffffffffffffffffffff1673ffffffffffffffffffffffffffffffffffffffff1681526020019081526020015f2081908060018154018082558091505060019003905f5260205f20015f90919091909150558a73ffffffffffffffffffffffffffffffffffffffff168d73ffffffffffffffffffffffffffffffffffffffff16827fe2e2bf7935a9b4afd8dd462f720e56c4a56322104c57cc6d5b41be962a3475da8d87878a604051610edb9493929190613832565b60405180910390a4809750505050505050610ef4611fef565b5095945050505050565b5f805f8381526020019081526020015f20600101549050919050565b610f2382610efe565b610f2c81611fb9565b610f368383612009565b50505050565b610f446120f2565b73ffffffffffffffffffffffffffffffffffffffff168173ffffffffffffffffffffffffffffffffffffffff1614610fa8576040517f6697b23200000000000000000000000000000000000000000000000000000000815260040160405180910390fd5b610fb282826120f9565b505050565b5f801b610fc381611fb9565b610fed7f3c4a2d89ed8b4cf4347fec87df1c38410f8fc538bf9fd64c10f2717bc0feff3683610f1a565b8173ffffffffffffffffffffffffffffffffffffffff167f331b591cc0983cd9d399b50dbfa864f253f25c72e8eb5e3dec66264028a8129842604051611033919061387c565b60405180910390a25050565b7f0424cf38c8834beebcaa33d45624a52f86494e75143c4aef2aafdb8bd68c732e61106981611fb9565b5f60025f8581526020019081526020015f2060050154116110bf576040517f08c379a00000000000000000000000000000000000000000000000000000000081526004016110b6906138df565b60405180910390fd5b60025f8481526020019081526020015f206007015f9054906101000a900460ff1615611120576040517f08c379a000000000000000000000000000000000000000000000000000000000815260040161111790613947565b60405180910390fd5b600160025f8581526020019081526020015f206007015f6101000a81548160ff021916908315150217905550827f73c900388827b9ea3051b012aaa6665344945711c45937c163560877a831e4f18360405161117c91906128e9565b60405180910390a2505050565b6001602052815f5260405f20818051602081018201805184825260208301602085012081835280955050505050505f9150915050805f0180546111cb90612fcc565b80601f01602080910402602001604051908101604052809291908181526020018280546111f790612fcc565b80156112425780601f1061121957610100808354040283529160200191611242565b820191905f5260205f20905b81548152906001019060200180831161122557829003601f168201915b50505050509080600101805461125790612fcc565b80601f016020809104026020016040519081016040528092919081815260200182805461128390612fcc565b80156112ce5780601f106112a5576101008083540402835291602001916112ce565b820191905f5260205f20905b8154815290600101906020018083116112b157829003601f168201915b5050505050908060020154908060030180546112e990612fcc565b80601f016020809104026020016040519081016040528092919081815260200182805461131590612fcc565b80156113605780601f1061133757610100808354040283529160200191611360565b820191905f5260205f20905b81548152906001019060200180831161134357829003601f168201915b50505050509080600401805461137590612fcc565b80601f01602080910402602001604051908101604052809291908181526020018280546113a190612fcc565b80156113ec5780601f106113c3576101008083540402835291602001916113ec565b820191905f5260205f20905b8154815290600101906020018083116113cf57829003601f168201915b50505050509080600501805461140190612fcc565b80601f016020809104026020016040519081016040528092919081815260200182805461142d90612fcc565b80156114785780601f1061144f57610100808354040283529160200191611478565b820191905f5260205f20905b81548152906001019060200180831161145b57829003601f168201915b505050505090806006015f9054906101000a900473ffffffffffffffffffffffffffffffffffffffff1690806007015490806008015f9054906101000a900473ffffffffffffffffffffffffffffffffffffffff16908060080160149054906101000a900460ff169080600901549080600a015490508c565b5f805f8481526020019081526020015f205f015f8373ffffffffffffffffffffffffffffffffffffffff1673ffffffffffffffffffffffffffffffffffffffff1681526020019081526020015f205f9054906101000a900460ff16905092915050565b5f801b81565b606060035f8373ffffffffffffffffffffffffffffffffffffffff1673ffffffffffffffffffffffffffffffffffffffff1681526020019081526020015f208054806020026020016040519081016040528092919081815260200182805480156115e157602002820191905f5260205f20905b8154815260200190600101908083116115cd575b50505050509050919050565b7f0424cf38c8834beebcaa33d45624a52f86494e75143c4aef2aafdb8bd68c732e81565b6002602052805f5260405f205f91509050805f015490806001015f9054906101000a900473ffffffffffffffffffffffffffffffffffffffff169080600201805461165b90612fcc565b80601f016020809104026020016040519081016040528092919081815260200182805461168790612fcc565b80156116d25780601f106116a9576101008083540402835291602001916116d2565b820191905f5260205f20905b8154815290600101906020018083116116b557829003601f168201915b505050505090806003015f9054906101000a900473ffffffffffffffffffffffffffffffffffffffff16908060030160149054906101000a900460ff1690806004015490806005015490806006015490806007015f9054906101000a900460ff16905089565b7f3c4a2d89ed8b4cf4347fec87df1c38410f8fc538bf9fd64c10f2717bc0feff3681565b60ea81565b7f3c4a2d89ed8b4cf4347fec87df1c38410f8fc538bf9fd64c10f2717bc0feff3661178b81611fb9565b5f8a51116117ce576040517f08c379a00000000000000000000000000000000000000000000000000000000081526004016117c5906139af565b60405180910390fd5b5f8711611810576040517f08c379a000000000000000000000000000000000000000000000000000000000815260040161180790613a17565b60405180910390fd5b5f73ffffffffffffffffffffffffffffffffffffffff168473ffffffffffffffffffffffffffffffffffffffff160361187e576040517f08c379a000000000000000000000000000000000000000000000000000000000815260040161187590613a7f565b60405180910390fd5b6040518061018001604052808a81526020018981526020018881526020018b81526020018781526020018681526020018573ffffffffffffffffffffffffffffffffffffffff1681526020018481526020018373ffffffffffffffffffffffffffffffffffffffff1681526020016001151581526020014281526020014281525060015f3373ffffffffffffffffffffffffffffffffffffffff1673ffffffffffffffffffffffffffffffffffffffff1681526020019081526020015f208b60405161194a9190613036565b90815260200160405180910390205f820151815f01908161196b9190613763565b5060208201518160010190816119819190613763565b506040820151816002015560608201518160030190816119a19190613763565b5060808201518160040190816119b79190613763565b5060a08201518160050190816119cd9190613763565b5060c0820151816006015f6101000a81548173ffffffffffffffffffffffffffffffffffffffff021916908373ffffffffffffffffffffffffffffffffffffffff16021790555060e08201518160070155610100820151816008015f6101000a81548173ffffffffffffffffffffffffffffffffffffffff021916908373ffffffffffffffffffffffffffffffffffffffff1602179055506101208201518160080160146101000a81548160ff021916908315150217905550610140820151816009015561016082015181600a01559050503373ffffffffffffffffffffffffffffffffffffffff167f8a50486d11598db18534de5c49ed4820c4b8ad05f7dc6e57355658089539a6408b8985604051611ae993929190613a9d565b60405180910390a250505050505050505050565b611b0682610efe565b611b0f81611fb9565b611b1983836120f9565b50505050565b611b2761233c565b60015f8473ffffffffffffffffffffffffffffffffffffffff1673ffffffffffffffffffffffffffffffffffffffff1681526020019081526020015f2082604051611b729190613036565b9081526020016040518091039020604051806101800160405290815f82018054611b9b90612fcc565b80601f0160208091040260200160405190810160405280929190818152602001828054611bc790612fcc565b8015611c125780601f10611be957610100808354040283529160200191611c12565b820191905f5260205f20905b815481529060010190602001808311611bf557829003601f168201915b50505050508152602001600182018054611c2b90612fcc565b80601f0160208091040260200160405190810160405280929190818152602001828054611c5790612fcc565b8015611ca25780601f10611c7957610100808354040283529160200191611ca2565b820191905f5260205f20905b815481529060010190602001808311611c8557829003601f168201915b5050505050815260200160028201548152602001600382018054611cc590612fcc565b80601f0160208091040260200160405190810160405280929190818152602001828054611cf190612fcc565b8015611d3c5780601f10611d1357610100808354040283529160200191611d3c565b820191905f5260205f20905b815481529060010190602001808311611d1f57829003601f168201915b50505050508152602001600482018054611d5590612fcc565b80601f0160208091040260200160405190810160405280929190818152602001828054611d8190612fcc565b8015611dcc5780601f10611da357610100808354040283529160200191611dcc565b820191905f5260205f20905b815481529060010190602001808311611daf57829003601f168201915b50505050508152602001600582018054611de590612fcc565b80601f0160208091040260200160405190810160405280929190818152602001828054611e1190612fcc565b8015611e5c5780601f10611e3357610100808354040283529160200191611e5c565b820191905f5260205f20905b815481529060010190602001808311611e3f57829003601f168201915b50505050508152602001600682015f9054906101000a900473ffffffffffffffffffffffffffffffffffffffff1673ffffffffffffffffffffffffffffffffffffffff1673ffffffffffffffffffffffffffffffffffffffff16815260200160078201548152602001600882015f9054906101000a900473ffffffffffffffffffffffffffffffffffffffff1673ffffffffffffffffffffffffffffffffffffffff1673ffffffffffffffffffffffffffffffffffffffff1681526020016008820160149054906101000a900460ff1615151515815260200160098201548152602001600a82015481525050905092915050565b5f7f01ffc9a7000000000000000000000000000000000000000000000000000000007bffffffffffffffffffffffffffffffffffffffffffffffffffffffff1916827bffffffffffffffffffffffffffffffffffffffffffffffffffffffff1916149050919050565b611fca81611fc56120f2565b6121e2565b50565b611fd5612233565b6002611fe7611fe2612274565b61229d565b5f0181905550565b6001612001611ffc612274565b61229d565b5f0181905550565b5f61201483836114f1565b6120e85760015f808581526020019081526020015f205f015f8473ffffffffffffffffffffffffffffffffffffffff1673ffffffffffffffffffffffffffffffffffffffff1681526020019081526020015f205f6101000a81548160ff0219169083151502179055506120856120f2565b73ffffffffffffffffffffffffffffffffffffffff168273ffffffffffffffffffffffffffffffffffffffff16847f2f8788117e7eff1d82e926ec794901d17c78024a50270940304540a733656f0d60405160405180910390a4600190506120ec565b5f90505b92915050565b5f33905090565b5f61210483836114f1565b156121d8575f805f8581526020019081526020015f205f015f8473ffffffffffffffffffffffffffffffffffffffff1673ffffffffffffffffffffffffffffffffffffffff1681526020019081526020015f205f6101000a81548160ff0219169083151502179055506121756120f2565b73ffffffffffffffffffffffffffffffffffffffff168273ffffffffffffffffffffffffffffffffffffffff16847ff6391f5c32d9c69d2a47ea670b442974b53935d1edc7fd64eb21e047a839171b60405160405180910390a4600190506121dc565b5f90505b92915050565b6121ec82826114f1565b61222f5780826040517fe2517d3f000000000000000000000000000000000000000000000000000000008152600401612226929190613ad9565b60405180910390fd5b5050565b61223b6122a6565b15612272576040517f3ee5aeb500000000000000000000000000000000000000000000000000000000815260040160405180910390fd5b565b5f7f9b779b17422d0df92223018b32b4d1fa46e071723d6817e2486d003becc55f005f1b905090565b5f819050919050565b5f60026122b96122b4612274565b61229d565b5f015414905090565b6040518061012001604052805f80191681526020015f73ffffffffffffffffffffffffffffffffffffffff168152602001606081526020015f73ffffffffffffffffffffffffffffffffffffffff1681526020015f151581526020015f81526020015f81526020015f80191681526020015f151581525090565b60405180610180016040528060608152602001606081526020015f81526020016060815260200160608152602001606081526020015f73ffffffffffffffffffffffffffffffffffffffff1681526020015f81526020015f73ffffffffffffffffffffffffffffffffffffffff1681526020015f151581526020015f81526020015f81525090565b5f604051905090565b5f80fd5b5f80fd5b5f7fffffffff0000000000000000000000000000000000000000000000000000000082169050919050565b612409816123d5565b8114612413575f80fd5b50565b5f8135905061242481612400565b92915050565b5f6020828403121561243f5761243e6123cd565b5b5f61244c84828501612416565b91505092915050565b5f8115159050919050565b61246981612455565b82525050565b5f6020820190506124825f830184612460565b92915050565b5f819050919050565b61249a81612488565b81146124a4575f80fd5b50565b5f813590506124b581612491565b92915050565b5f602082840312156124d0576124cf6123cd565b5b5f6124dd848285016124a7565b91505092915050565b6124ef81612488565b82525050565b5f73ffffffffffffffffffffffffffffffffffffffff82169050919050565b5f61251e826124f5565b9050919050565b61252e81612514565b82525050565b5f81519050919050565b5f82825260208201905092915050565b5f5b8381101561256b578082015181840152602081019050612550565b5f8484015250505050565b5f601f19601f8301169050919050565b5f61259082612534565b61259a818561253e565b93506125aa81856020860161254e565b6125b381612576565b840191505092915050565b6125c781612455565b82525050565b5f819050919050565b6125df816125cd565b82525050565b5f61012083015f8301516125fb5f8601826124e6565b50602083015161260e6020860182612525565b50604083015184820360408601526126268282612586565b915050606083015161263b6060860182612525565b50608083015161264e60808601826125be565b5060a083015161266160a08601826125d6565b5060c083015161267460c08601826125d6565b5060e083015161268760e08601826124e6565b5061010083015161269c6101008601826125be565b508091505092915050565b5f6020820190508181035f8301526126bf81846125e5565b905092915050565b6126d081612514565b81146126da575f80fd5b50565b5f813590506126eb816126c7565b92915050565b5f80fd5b5f80fd5b7f4e487b71000000000000000000000000000000000000000000000000000000005f52604160045260245ffd5b61272f82612576565b810181811067ffffffffffffffff8211171561274e5761274d6126f9565b5b80604052505050565b5f6127606123c4565b905061276c8282612726565b919050565b5f67ffffffffffffffff82111561278b5761278a6126f9565b5b61279482612576565b9050602081019050919050565b828183375f83830152505050565b5f6127c16127bc84612771565b612757565b9050828152602081018484840111156127dd576127dc6126f5565b5b6127e88482856127a1565b509392505050565b5f82601f830112612804576128036126f1565b5b81356128148482602086016127af565b91505092915050565b612826816125cd565b8114612830575f80fd5b50565b5f813590506128418161281d565b92915050565b5f805f805f60a086880312156128605761285f6123cd565b5b5f61286d888289016126dd565b955050602086013567ffffffffffffffff81111561288e5761288d6123d1565b5b61289a888289016127f0565b94505060406128ab888289016126dd565b93505060606128bc88828901612833565b92505060806128cd888289016124a7565b9150509295509295909350565b6128e381612488565b82525050565b5f6020820190506128fc5f8301846128da565b92915050565b5f8060408385031215612918576129176123cd565b5b5f612925858286016124a7565b9250506020612936858286016126dd565b9150509250929050565b5f60208284031215612955576129546123cd565b5b5f612962848285016126dd565b91505092915050565b5f8060408385031215612981576129806123cd565b5b5f61298e858286016124a7565b925050602061299f858286016124a7565b9150509250929050565b5f80604083850312156129bf576129be6123cd565b5b5f6129cc858286016126dd565b925050602083013567ffffffffffffffff8111156129ed576129ec6123d1565b5b6129f9858286016127f0565b9150509250929050565b5f82825260208201905092915050565b5f612a1d82612534565b612a278185612a03565b9350612a3781856020860161254e565b612a4081612576565b840191505092915050565b612a54816125cd565b82525050565b612a6381612514565b82525050565b5f610180820190508181035f830152612a82818f612a13565b90508181036020830152612a96818e612a13565b9050612aa5604083018d612a4b565b8181036060830152612ab7818c612a13565b90508181036080830152612acb818b612a13565b905081810360a0830152612adf818a612a13565b9050612aee60c0830189612a5a565b612afb60e0830188612a4b565b612b09610100830187612a5a565b612b17610120830186612460565b612b25610140830185612a4b565b612b33610160830184612a4b565b9d9c50505050505050505050505050565b5f81519050919050565b5f82825260208201905092915050565b5f819050602082019050919050565b5f612b7883836124e6565b60208301905092915050565b5f602082019050919050565b5f612b9a82612b44565b612ba48185612b4e565b9350612baf83612b5e565b805f5b83811015612bdf578151612bc68882612b6d565b9750612bd183612b84565b925050600181019050612bb2565b5085935050505092915050565b5f6020820190508181035f830152612c048184612b90565b905092915050565b5f61012082019050612c205f83018c6128da565b612c2d602083018b612a5a565b8181036040830152612c3f818a612a13565b9050612c4e6060830189612a5a565b612c5b6080830188612460565b612c6860a0830187612a4b565b612c7560c0830186612a4b565b612c8260e08301856128da565b612c90610100830184612460565b9a9950505050505050505050565b5f819050919050565b5f612cc1612cbc612cb7846124f5565b612c9e565b6124f5565b9050919050565b5f612cd282612ca7565b9050919050565b5f612ce382612cc8565b9050919050565b612cf381612cd9565b82525050565b5f602082019050612d0c5f830184612cea565b92915050565b5f805f805f805f805f6101208a8c031215612d3057612d2f6123cd565b5b5f8a013567ffffffffffffffff811115612d4d57612d4c6123d1565b5b612d598c828d016127f0565b99505060208a013567ffffffffffffffff811115612d7a57612d796123d1565b5b612d868c828d016127f0565b98505060408a013567ffffffffffffffff811115612da757612da66123d1565b5b612db38c828d016127f0565b9750506060612dc48c828d01612833565b96505060808a013567ffffffffffffffff811115612de557612de46123d1565b5b612df18c828d016127f0565b95505060a08a013567ffffffffffffffff811115612e1257612e116123d1565b5b612e1e8c828d016127f0565b94505060c0612e2f8c828d016126dd565b93505060e0612e408c828d01612833565b925050610100612e528c828d016126dd565b9150509295985092959850929598565b5f61018083015f8301518482035f860152612e7d8282612586565b91505060208301518482036020860152612e978282612586565b9150506040830151612eac60408601826125d6565b5060608301518482036060860152612ec48282612586565b91505060808301518482036080860152612ede8282612586565b91505060a083015184820360a0860152612ef88282612586565b91505060c0830151612f0d60c0860182612525565b5060e0830151612f2060e08601826125d6565b50610100830151612f35610100860182612525565b50610120830151612f4a6101208601826125be565b50610140830151612f5f6101408601826125d6565b50610160830151612f746101608601826125d6565b508091505092915050565b5f6020820190508181035f830152612f978184612e62565b905092915050565b7f4e487b71000000000000000000000000000000000000000000000000000000005f52602260045260245ffd5b5f6002820490506001821680612fe357607f821691505b602082108103612ff657612ff5612f9f565b5b50919050565b5f81905092915050565b5f61301082612534565b61301a8185612ffc565b935061302a81856020860161254e565b80840191505092915050565b5f6130418284613006565b915081905092915050565b7f5061796d656e7420726571756972656d656e74206e6f742061637469766500005f82015250565b5f613080601e83612a03565b915061308b8261304c565b602082019050919050565b5f6020820190508181035f8301526130ad81613074565b9050919050565b7f496e73756666696369656e74207061796d656e7420616d6f756e7400000000005f82015250565b5f6130e8601b83612a03565b91506130f3826130b4565b602082019050919050565b5f6020820190508181035f830152613115816130dc565b9050919050565b5f60208201905061312f5f830184612a5a565b92915050565b5f80fd5b5f80fd5b5f61314f61314a84612771565b612757565b90508281526020810184848401111561316b5761316a6126f5565b5b61317684828561254e565b509392505050565b5f82601f830112613192576131916126f1565b5b81516131a284826020860161313d565b91505092915050565b5f67ffffffffffffffff8211156131c5576131c46126f9565b5b6131ce82612576565b9050602081019050919050565b5f6131ed6131e8846131ab565b612757565b905082815260208101848484011115613209576132086126f5565b5b61321484828561254e565b509392505050565b5f82601f8301126132305761322f6126f1565b5b81516132408482602086016131db565b91505092915050565b5f6060828403121561325e5761325d613135565b5b6132686060612757565b90505f82015167ffffffffffffffff81111561328757613286613139565b5b6132938482850161317e565b5f83015250602082015167ffffffffffffffff8111156132b6576132b5613139565b5b6132c28482850161317e565b602083015250604082015167ffffffffffffffff8111156132e6576132e5613139565b5b6132f28482850161321c565b60408301525092915050565b61330781612455565b8114613311575f80fd5b50565b5f81519050613322816132fe565b92915050565b5f806040838503121561333e5761333d6123cd565b5b5f83015167ffffffffffffffff81111561335b5761335a6123d1565b5b61336785828601613249565b925050602061337885828601613314565b9150509250929050565b7f3a000000000000000000000000000000000000000000000000000000000000005f82015250565b5f6133b6600183612ffc565b91506133c182613382565b600182019050919050565b5f6133d78285613006565b91506133e2826133aa565b91506133ee8284613006565b91508190509392505050565b5f81519050919050565b5f819050602082019050919050565b5f7fffffffffffffffffffffffffffffffffffffffff00000000000000000000000082169050919050565b5f6134498251613413565b80915050919050565b5f82821b905092915050565b5f613468826133fa565b8261347284613404565b905061347d8161343e565b925060148210156134bd576134b87fffffffffffffffffffffffffffffffffffffffff00000000000000000000000083601403600802613452565b831692505b5050919050565b5f8160601b9050919050565b5f6134da826134c4565b9050919050565b5f6134eb826134d0565b9050919050565b6135036134fe82612514565b6134e1565b82525050565b5f819050919050565b61352361351e826125cd565b613509565b82525050565b5f819050919050565b61354361353e82612488565b613529565b82525050565b5f61355482896134f2565b6014820191506135648288613006565b915061357082876134f2565b6014820191506135808286613512565b6020820191506135908285613512565b6020820191506135a08284613532565b602082019150819050979650505050505050565b5f6135bf82856134f2565b6014820191506135cf8284613006565b91508190509392505050565b5f819050815f5260205f209050919050565b5f6020601f8301049050919050565b5f6008830261362b7fffffffffffffffffffffffffffffffffffffffffffffffffffffffffffffffff82613452565b6136358683613452565b95508019841693508086168417925050509392505050565b5f61366761366261365d846125cd565b612c9e565b6125cd565b9050919050565b5f819050919050565b6136808361364d565b61369461368c8261366e565b8484546135fc565b825550505050565b5f90565b6136a861369c565b6136b3818484613677565b505050565b5b818110156136d6576136cb5f826136a0565b6001810190506136b9565b5050565b601f82111561371b576136ec816135db565b6136f5846135ed565b81016020851015613704578190505b613718613710856135ed565b8301826136b8565b50505b505050565b5f82821c905092915050565b5f61373b5f1984600802613720565b1980831691505092915050565b5f613753838361372c565b9150826002028217905092915050565b61376c82612534565b67ffffffffffffffff811115613785576137846126f9565b5b61378f8254612fcc565b61379a8282856136da565b5f60209050601f8311600181146137cb575f84156137b9578287015190505b6137c38582613748565b86555061382a565b601f1984166137d9866135db565b5f5b82811015613800578489015182556001820191506020850194506020810190506137db565b8683101561381d5784890151613819601f89168261372c565b8355505b6001600288020188555050505b505050505050565b5f6080820190506138455f830187612a4b565b81810360208301526138578186612a13565b90506138666040830185612a5a565b6138736060830184612460565b95945050505050565b5f60208201905061388f5f830184612a4b565b92915050565b7f5061796d656e74206e6f7420666f756e640000000000000000000000000000005f82015250565b5f6138c9601183612a03565b91506138d482613895565b602082019050919050565b5f6020820190508181035f8301526138f6816138bd565b9050919050565b7f5061796d656e7420616c726561647920736574746c65640000000000000000005f82015250565b5f613931601783612a03565b915061393c826138fd565b602082019050919050565b5f6020820190508181035f83015261395e81613925565b9050919050565b7f5265736f757263652063616e6e6f7420626520656d70747900000000000000005f82015250565b5f613999601883612a03565b91506139a482613965565b602082019050919050565b5f6020820190508181035f8301526139c68161398d565b9050919050565b7f416d6f756e74206d7573742062652067726561746572207468616e20300000005f82015250565b5f613a01601d83612a03565b9150613a0c826139cd565b602082019050919050565b5f6020820190508181035f830152613a2e816139f5565b9050919050565b7f496e76616c696420706179546f206164647265737300000000000000000000005f82015250565b5f613a69601583612a03565b9150613a7482613a35565b602082019050919050565b5f6020820190508181035f830152613a9681613a5d565b9050919050565b5f6060820190508181035f830152613ab58186612a13565b9050613ac46020830185612a4b565b613ad16040830184612a5a565b949350505050565b5f604082019050613aec5f830185612a5a565b613af960208301846128da565b939250505056fea264697066735822122064bc090a0d1be3d8f4950d532d7c923fde4c5c3f663bd7d98e5724d8b89c47d564736f6c63430008160033","linkReferences":{}},"methodIdentifiers":{"DEFAULT_ADMIN_ROLE()":"a217fddf","FACILITATOR_ROLE()":"a7302b07","MERCHANT_ROLE()":"b3d35839","UEA_FACTORY()":"b7e9c037","createPaymentRequirement(string,string,string,uint256,string,string,address,uint256,address)":"be79ea44","getMerchantPayments(address)":"a356a128","getPaymentRecord(bytes32)":"021e62d9","getPaymentRequirement(address,string)":"ee688a49","getRoleAdmin(bytes32)":"248a9ca3","grantRole(bytes32,address)":"2f2ff15d","hasRole(bytes32,address)":"91d14854","markPaymentSettled(bytes32,bytes32)":"5b078630","paymentRecords(bytes32)":"b329b6a7","paymentRequirements(address,string)":"8d0b1631","recordPayment(address,string,address,uint256,bytes32)":"064b140f","registerMerchant(address)":"584ba2f1","renounceRole(bytes32,address)":"36568abe","revokeRole(bytes32,address)":"d547741f","supportsInterface(bytes4)":"01ffc9a7"},"id":26}