{"abi":[{"type":"constructor","inputs":[],"stateMutability":"nonpayable"},{"type":"function","name":"DEFAULT_ADMIN_ROLE","inputs":[],"outputs":[{"name":"","type":"bytes32","internalType":"bytes32"}],"stateMutability":"view"},{"type":"function","name":"FACILITATOR_ROLE","inputs":[],"outputs":[{"name":"","type":"bytes32","internalType":"bytes32"}],"stateMutability":"view"},{"type":"function","name":"createEscrow","inputs":[{"name":"payee","type":"address","internalType":"address"},{"name":"asset","type":"address","internalType":"address"},{"name":"amount","type":"uint256","internalType":"uint256"},{"name":"timeoutSeconds","type":"uint256","internalType":"uint256"},{"name":"paymentId","type":"bytes32","internalType":"bytes32"},{"name":"resource","type":"string","internalType":"string"}],"outputs":[{"name":"","type":"bytes32","internalType":"bytes32"}],"stateMutability":"payable"},{"type":"function","name":"escrows","inputs":[{"name":"","type":"bytes32","internalType":"bytes32"}],"outputs":[{"name":"payer","type":"address","internalType":"address"},{"name":"payee","type":"address","internalType":"address"},{"name":"asset","type":"address","internalType":"address"},{"name":"amount","type":"uint256","internalType":"uint256"},{"name":"createdAt","type":"uint256","internalType":"uint256"},{"name":"expiresAt","type":"uint256","internalType":"uint256"},{"name":"status","type":"uint8","internalType":"enum X402PaymentEscrow.EscrowStatus"},{"name":"paymentId","type":"bytes32","internalType":"bytes32"},{"name":"resource","type":"string","internalType":"string"}],"stateMutability":"view"},{"type":"function","name":"getEscrow","inputs":[{"name":"escrowId","type":"bytes32","internalType":"bytes32"}],"outputs":[{"name":"","type":"tuple","internalType":"struct X402PaymentEscrow.Escrow","components":[{"name":"payer","type":"address","internalType":"address"},{"name":"payee","type":"address","internalType":"address"},{"name":"asset","type":"address","internalType":"address"},{"name":"amount","type":"uint256","internalType":"uint256"},{"name":"createdAt","type":"uint256","internalType":"uint256"},{"name":"expiresAt","type":"uint256","internalType":"uint256"},{"name":"status","type":"uint8","internalType":"enum X402PaymentEscrow.EscrowStatus"},{"name":"paymentId","type":"bytes32","internalType":"bytes32"},{"name":"resource","type":"string","internalType":"string"}]}],"stateMutability":"view"},{"type":"function","name":"getEscrowStatus","inputs":[{"name":"escrowId","type":"bytes32","internalType":"bytes32"}],"outputs":[{"name":"","type":"uint8","internalType":"enum X402PaymentEscrow.EscrowStatus"}],"stateMutability":"view"},{"type":"function","name":"getRoleAdmin","inputs":[{"name":"role","type":"bytes32","internalType":"bytes32"}],"outputs":[{"name":"","type":"bytes32","internalType":"bytes32"}],"stateMutability":"view"},{"type":"function","name":"grantRole","inputs":[{"name":"role","type":"bytes32","internalType":"bytes32"},{"name":"account","type":"address","internalType":"address"}],"outputs":[],"stateMutability":"nonpayable"},{"type":"function","name":"hasRole","inputs":[{"name":"role","type":"bytes32","internalType":"bytes32"},{"name":"account","type":"address","internalType":"address"}],"outputs":[{"name":"","type":"bool","internalType":"bool"}],"stateMutability":"view"},{"type":"function","name":"refundEscrow","inputs":[{"name":"escrowId","type":"bytes32","internalType":"bytes32"}],"outputs":[],"stateMutability":"nonpayable"},{"type":"function","name":"releaseEscrow","inputs":[{"name":"escrowId","type":"bytes32","internalType":"bytes32"}],"outputs":[],"stateMutability":"nonpayable"},{"type":"function","name":"renounceRole","inputs":[{"name":"role","type":"bytes32","internalType":"bytes32"},{"name":"callerConfirmation","type":"address","internalType":"address"}],"outputs":[],"stateMutability":"nonpayable"},{"type":"function","name":"revokeRole","inputs":[{"name":"role","type":"bytes32","internalType":"bytes32"},{"name":"account","type":"address","internalType":"address"}],"outputs":[],"stateMutability":"nonpayable"},{"type":"function","name":"supportsInterface","inputs":[{"name":"interfaceId","type":"bytes4","internalType":"bytes4"}],"outputs":[{"name":"","type":"bool","internalType":"bool"}],"stateMutability":"view"},{"type":"event","name":"EscrowCreated","inputs":[{"name":"escrowId","type":"bytes32","indexed":true,"internalType":"bytes32"},{"name":"payer","type":"address","indexed":true,"internalType":"address"},{"name":"payee","type":"address","indexed":true,"internalType":"address"},{"name":"amount","type":"uint256","indexed":false,"internalType":"uint256"},{"name":"asset","type":"address","indexed":false,"internalType":"address"}],"anonymous":false},{"type":"event","name":"EscrowDisputed","inputs":[{"name":"escrowId","type":"bytes32","indexed":true,"internalType":"bytes32"}],"anonymous":false},{"type":"event","name":"EscrowRefunded","inputs":[{"name":"escrowId","type":"bytes32","indexed":true,"internalType":"bytes32"},{"name":"payer","type":"address","indexed":true,"internalType":"address"}],"anonymous":false},{"type":"event","name":"EscrowReleased","inputs":[{"name":"escrowId","type":"bytes32","indexed":true,"internalType":"bytes32"},{"name":"payee","type":"address","indexed":true,"internalType":"address"}],"anonymous":false},{"type":"event","name":"RoleAdminChanged","inputs":[{"name":"role","type":"bytes32","indexed":true,"internalType":"bytes32"},{"name":"previousAdminRole","type":"bytes32","indexed":true,"internalType":"bytes32"},{"name":"newAdminRole","type":"bytes32","indexed":true,"internalType":"bytes32"}],"anonymous":false},{"type":"event","name":"RoleGranted","inputs":[{"name":"role","type":"bytes32","indexed":true,"internalType":"bytes32"},{"name":"account","type":"address","indexed":true,"internalType":"address"},{"name":"sender","type":"address","indexed":true,"internalType":"address"}],"anonymous":false},{"type":"event","name":"RoleRevoked","inputs":[{"name":"role","type":"bytes32","indexed":true,"internalType":"bytes32"},{"name":"account","type":"address","indexed":true,"internalType":"address"},{"name":"sender","type":"address","indexed":true,"internalType":"address"}],"anonymous":false},{"type":"error","name":"AccessControlBadConfirmation","inputs":[]},{"type":"error","name":"AccessControlUnauthorizedAccount","inputs":[{"name":"account","type":"address","internalType":"address"},{"name":"neededRole","type":"bytes32","internalType":"bytes32"}]},{"type":"error","name":"ReentrancyGuardReentrantCall","inputs":[]},{"type":"error","name":"SafeERC20FailedOperation","inputs":[{"name":"token","type":"address","internalType":"address"}]}],"bytecode":{"object":"0x608060405234801562000010575f80fd5b50600162000033620000276200008760201b60201c565b620000b060201b60201c565b5f01819055506200004d5f801b33620000b960201b60201c565b50620000807f0424cf38c8834beebcaa33d45624a52f86494e75143c4aef2aafdb8bd68c732e33620000b960201b60201c565b506200021e565b5f7f9b779b17422d0df92223018b32b4d1fa46e071723d6817e2486d003becc55f005f1b905090565b5f819050919050565b5f620000cc8383620001b460201b60201c565b620001aa5760015f808581526020019081526020015f205f015f8473ffffffffffffffffffffffffffffffffffffffff1673ffffffffffffffffffffffffffffffffffffffff1681526020019081526020015f205f6101000a81548160ff021916908315150217905550620001466200021760201b60201c565b73ffffffffffffffffffffffffffffffffffffffff168273ffffffffffffffffffffffffffffffffffffffff16847f2f8788117e7eff1d82e926ec794901d17c78024a50270940304540a733656f0d60405160405180910390a460019050620001ae565b5f90505b92915050565b5f805f8481526020019081526020015f205f015f8373ffffffffffffffffffffffffffffffffffffffff1673ffffffffffffffffffffffffffffffffffffffff1681526020019081526020015f205f9054906101000a900460ff16905092915050565b5f33905090565b612836806200022c5f395ff3fe6080604052600436106100dc575f3560e01c80635356d0ca1161007e578063a7302b0711610058578063a7302b07146102e6578063bf89fc6114610310578063d547741f14610338578063f023b81114610360576100dc565b80635356d0ca1461024457806391d1485414610280578063a217fddf146102bc576100dc565b80632f2ff15d116100ba5780632f2ff15d1461019c5780633229f921146101c457806336568abe146101f457806347aed5081461021c576100dc565b806301ffc9a7146100e0578063248a9ca31461011c5780632d83549c14610158575b5f80fd5b3480156100eb575f80fd5b50610106600480360381019061010191906119c8565b61039c565b6040516101139190611a0d565b60405180910390f35b348015610127575f80fd5b50610142600480360381019061013d9190611a59565b610415565b60405161014f9190611a93565b60405180910390f35b348015610163575f80fd5b5061017e60048036038101906101799190611a59565b610431565b60405161019399989796959493929190611c00565b60405180910390f35b3480156101a7575f80fd5b506101c260048036038101906101bd9190611cbc565b61056a565b005b6101de60048036038101906101d99190611e50565b61058c565b6040516101eb9190611a93565b60405180910390f35b3480156101ff575f80fd5b5061021a60048036038101906102159190611cbc565b6109d0565b005b348015610227575f80fd5b50610242600480360381019061023d9190611a59565b610a4b565b005b34801561024f575f80fd5b5061026a60048036038101906102659190611a59565b610de9565b6040516102779190611ef5565b60405180910390f35b34801561028b575f80fd5b506102a660048036038101906102a19190611cbc565b610e12565b6040516102b39190611a0d565b60405180910390f35b3480156102c7575f80fd5b506102d0610e75565b6040516102dd9190611a93565b60405180910390f35b3480156102f1575f80fd5b506102fa610e7b565b6040516103079190611a93565b60405180910390f35b34801561031b575f80fd5b5061033660048036038101906103319190611a59565b610e9f565b005b348015610343575f80fd5b5061035e60048036038101906103599190611cbc565b61119c565b005b34801561036b575f80fd5b5061038660048036038101906103819190611a59565b6111be565b6040516103939190612054565b60405180910390f35b5f7f7965db0b000000000000000000000000000000000000000000000000000000007bffffffffffffffffffffffffffffffffffffffffffffffffffffffff1916827bffffffffffffffffffffffffffffffffffffffffffffffffffffffff1916148061040e575061040d826113da565b5b9050919050565b5f805f8381526020019081526020015f20600101549050919050565b6001602052805f5260405f205f91509050805f015f9054906101000a900473ffffffffffffffffffffffffffffffffffffffff1690806001015f9054906101000a900473ffffffffffffffffffffffffffffffffffffffff1690806002015f9054906101000a900473ffffffffffffffffffffffffffffffffffffffff1690806003015490806004015490806005015490806006015f9054906101000a900460ff16908060070154908060080180546104e9906120a1565b80601f0160208091040260200160405190810160405280929190818152602001828054610515906120a1565b80156105605780601f1061053757610100808354040283529160200191610560565b820191905f5260205f20905b81548152906001019060200180831161054357829003601f168201915b5050505050905089565b61057382610415565b61057c81611443565b6105868383611457565b50505050565b5f610595611540565b5f73ffffffffffffffffffffffffffffffffffffffff168773ffffffffffffffffffffffffffffffffffffffff1603610603576040517f08c379a00000000000000000000000000000000000000000000000000000000081526004016105fa9061211b565b60405180910390fd5b5f8511610645576040517f08c379a000000000000000000000000000000000000000000000000000000000815260040161063c90612183565b60405180910390fd5b5f73ffffffffffffffffffffffffffffffffffffffff168673ffffffffffffffffffffffffffffffffffffffff16036106bf578434146106ba576040517f08c379a00000000000000000000000000000000000000000000000000000000081526004016106b1906121eb565b60405180910390fd5b61072f565b5f3414610701576040517f08c379a00000000000000000000000000000000000000000000000000000000081526004016106f890612253565b60405180910390fd5b61072e3330878973ffffffffffffffffffffffffffffffffffffffff16611562909392919063ffffffff16565b5b5f33888742876040516020016107499594939291906122f6565b6040516020818303038152906040528051906020012090506040518061012001604052803373ffffffffffffffffffffffffffffffffffffffff1681526020018973ffffffffffffffffffffffffffffffffffffffff1681526020018873ffffffffffffffffffffffffffffffffffffffff16815260200187815260200142815260200186426107d99190612381565b81526020015f60038111156107f1576107f0611b03565b5b81526020018581526020018481525060015f8381526020019081526020015f205f820151815f015f6101000a81548173ffffffffffffffffffffffffffffffffffffffff021916908373ffffffffffffffffffffffffffffffffffffffff1602179055506020820151816001015f6101000a81548173ffffffffffffffffffffffffffffffffffffffff021916908373ffffffffffffffffffffffffffffffffffffffff1602179055506040820151816002015f6101000a81548173ffffffffffffffffffffffffffffffffffffffff021916908373ffffffffffffffffffffffffffffffffffffffff160217905550606082015181600301556080820151816004015560a0820151816005015560c0820151816006015f6101000a81548160ff0219169083600381111561092957610928611b03565b5b021790555060e0820151816007015561010082015181600801908161094e9190612551565b509050508773ffffffffffffffffffffffffffffffffffffffff163373ffffffffffffffffffffffffffffffffffffffff16827fd20415f0285af8f788432f08890226bfa9a8999ffe2634c359f360f2069cee5a898b6040516109b2929190612620565b60405180910390a4809150506109c66115b7565b9695505050505050565b6109d86115d1565b73ffffffffffffffffffffffffffffffffffffffff168173ffffffffffffffffffffffffffffffffffffffff1614610a3c576040517f6697b23200000000000000000000000000000000000000000000000000000000815260040160405180910390fd5b610a4682826115d8565b505050565b610a53611540565b5f60015f8381526020019081526020015f2090505f6003811115610a7a57610a79611b03565b5b816006015f9054906101000a900460ff166003811115610a9d57610a9c611b03565b5b14610add576040517f08c379a0000000000000000000000000000000000000000000000000000000008152600401610ad490612691565b60405180910390fd5b805f015f9054906101000a900473ffffffffffffffffffffffffffffffffffffffff1673ffffffffffffffffffffffffffffffffffffffff163373ffffffffffffffffffffffffffffffffffffffff161480610b3c5750806005015442115b80610b6d5750610b6c7f0424cf38c8834beebcaa33d45624a52f86494e75143c4aef2aafdb8bd68c732e33610e12565b5b610bac576040517f08c379a0000000000000000000000000000000000000000000000000000000008152600401610ba3906126f9565b60405180910390fd5b6002816006015f6101000a81548160ff02191690836003811115610bd357610bd2611b03565b5b02179055505f73ffffffffffffffffffffffffffffffffffffffff16816002015f9054906101000a900473ffffffffffffffffffffffffffffffffffffffff1673ffffffffffffffffffffffffffffffffffffffff1603610d02575f815f015f9054906101000a900473ffffffffffffffffffffffffffffffffffffffff1673ffffffffffffffffffffffffffffffffffffffff168260030154604051610c7990612744565b5f6040518083038185875af1925050503d805f8114610cb3576040519150601f19603f3d011682016040523d82523d5f602084013e610cb8565b606091505b5050905080610cfc576040517f08c379a0000000000000000000000000000000000000000000000000000000008152600401610cf3906127a2565b60405180910390fd5b50610d77565b610d76815f015f9054906101000a900473ffffffffffffffffffffffffffffffffffffffff168260030154836002015f9054906101000a900473ffffffffffffffffffffffffffffffffffffffff1673ffffffffffffffffffffffffffffffffffffffff166116c19092919063ffffffff16565b5b805f015f9054906101000a900473ffffffffffffffffffffffffffffffffffffffff1673ffffffffffffffffffffffffffffffffffffffff16827f026c3e65e0c7f7ae234275c57dd6860821de4fff9cf22bf1c53c7ed2314588a660405160405180910390a350610de66115b7565b50565b5f60015f8381526020019081526020015f206006015f9054906101000a900460ff169050919050565b5f805f8481526020019081526020015f205f015f8373ffffffffffffffffffffffffffffffffffffffff1673ffffffffffffffffffffffffffffffffffffffff1681526020019081526020015f205f9054906101000a900460ff16905092915050565b5f801b81565b7f0424cf38c8834beebcaa33d45624a52f86494e75143c4aef2aafdb8bd68c732e81565b7f0424cf38c8834beebcaa33d45624a52f86494e75143c4aef2aafdb8bd68c732e610ec981611443565b610ed1611540565b5f60015f8481526020019081526020015f2090505f6003811115610ef857610ef7611b03565b5b816006015f9054906101000a900460ff166003811115610f1b57610f1a611b03565b5b14610f5b576040517f08c379a0000000000000000000000000000000000000000000000000000000008152600401610f5290612691565b60405180910390fd5b6001816006015f6101000a81548160ff02191690836003811115610f8257610f81611b03565b5b02179055505f73ffffffffffffffffffffffffffffffffffffffff16816002015f9054906101000a900473ffffffffffffffffffffffffffffffffffffffff1673ffffffffffffffffffffffffffffffffffffffff16036110b2575f816001015f9054906101000a900473ffffffffffffffffffffffffffffffffffffffff1673ffffffffffffffffffffffffffffffffffffffff16826003015460405161102990612744565b5f6040518083038185875af1925050503d805f8114611063576040519150601f19603f3d011682016040523d82523d5f602084013e611068565b606091505b50509050806110ac576040517f08c379a00000000000000000000000000000000000000000000000000000000081526004016110a3906127a2565b60405180910390fd5b50611128565b611127816001015f9054906101000a900473ffffffffffffffffffffffffffffffffffffffff168260030154836002015f9054906101000a900473ffffffffffffffffffffffffffffffffffffffff1673ffffffffffffffffffffffffffffffffffffffff166116c19092919063ffffffff16565b5b806001015f9054906101000a900473ffffffffffffffffffffffffffffffffffffffff1673ffffffffffffffffffffffffffffffffffffffff16837f376b9e73ea20b749b533d8617356ec5071166c91c1ef89d834667c279eba9d9260405160405180910390a3506111986115b7565b5050565b6111a582610415565b6111ae81611443565b6111b883836115d8565b50505050565b6111c66118c7565b60015f8381526020019081526020015f20604051806101200160405290815f82015f9054906101000a900473ffffffffffffffffffffffffffffffffffffffff1673ffffffffffffffffffffffffffffffffffffffff1673ffffffffffffffffffffffffffffffffffffffff168152602001600182015f9054906101000a900473ffffffffffffffffffffffffffffffffffffffff1673ffffffffffffffffffffffffffffffffffffffff1673ffffffffffffffffffffffffffffffffffffffff168152602001600282015f9054906101000a900473ffffffffffffffffffffffffffffffffffffffff1673ffffffffffffffffffffffffffffffffffffffff1673ffffffffffffffffffffffffffffffffffffffff168152602001600382015481526020016004820154815260200160058201548152602001600682015f9054906101000a900460ff16600381111561132357611322611b03565b5b600381111561133557611334611b03565b5b815260200160078201548152602001600882018054611353906120a1565b80601f016020809104026020016040519081016040528092919081815260200182805461137f906120a1565b80156113ca5780601f106113a1576101008083540402835291602001916113ca565b820191905f5260205f20905b8154815290600101906020018083116113ad57829003601f168201915b5050505050815250509050919050565b5f7f01ffc9a7000000000000000000000000000000000000000000000000000000007bffffffffffffffffffffffffffffffffffffffffffffffffffffffff1916827bffffffffffffffffffffffffffffffffffffffffffffffffffffffff1916149050919050565b6114548161144f6115d1565b611714565b50565b5f6114628383610e12565b6115365760015f808581526020019081526020015f205f015f8473ffffffffffffffffffffffffffffffffffffffff1673ffffffffffffffffffffffffffffffffffffffff1681526020019081526020015f205f6101000a81548160ff0219169083151502179055506114d36115d1565b73ffffffffffffffffffffffffffffffffffffffff168273ffffffffffffffffffffffffffffffffffffffff16847f2f8788117e7eff1d82e926ec794901d17c78024a50270940304540a733656f0d60405160405180910390a46001905061153a565b5f90505b92915050565b611548611765565b600261155a6115556117a6565b6117cf565b5f0181905550565b6115708484848460016117d8565b6115b157836040517f5274afe70000000000000000000000000000000000000000000000000000000081526004016115a891906127c0565b60405180910390fd5b50505050565b60016115c96115c46117a6565b6117cf565b5f0181905550565b5f33905090565b5f6115e38383610e12565b156116b7575f805f8581526020019081526020015f205f015f8473ffffffffffffffffffffffffffffffffffffffff1673ffffffffffffffffffffffffffffffffffffffff1681526020019081526020015f205f6101000a81548160ff0219169083151502179055506116546115d1565b73ffffffffffffffffffffffffffffffffffffffff168273ffffffffffffffffffffffffffffffffffffffff16847ff6391f5c32d9c69d2a47ea670b442974b53935d1edc7fd64eb21e047a839171b60405160405180910390a4600190506116bb565b5f90505b92915050565b6116ce8383836001611849565b61170f57826040517f5274afe700000000000000000000000000000000000000000000000000000000815260040161170691906127c0565b60405180910390fd5b505050565b61171e8282610e12565b6117615780826040517fe2517d3f0000000000000000000000000000000000000000000000000000000081526004016117589291906127d9565b60405180910390fd5b5050565b61176d6118ab565b156117a4576040517f3ee5aeb500000000000000000000000000000000000000000000000000000000815260040160405180910390fd5b565b5f7f9b779b17422d0df92223018b32b4d1fa46e071723d6817e2486d003becc55f005f1b905090565b5f819050919050565b5f806323b872dd60e01b9050604051815f525f1960601c87166004525f1960601c86166024528460445260205f60645f808c5af1925060015f5114831661183657838315161561182a573d5f823e3d81fd5b5f883b113d1516831692505b806040525f606052505095945050505050565b5f8063a9059cbb60e01b9050604051815f525f1960601c86166004528460245260205f60445f808b5af1925060015f5114831661189d578383151615611891573d5f823e3d81fd5b5f873b113d1516831692505b806040525050949350505050565b5f60026118be6118b96117a6565b6117cf565b5f015414905090565b6040518061012001604052805f73ffffffffffffffffffffffffffffffffffffffff1681526020015f73ffffffffffffffffffffffffffffffffffffffff1681526020015f73ffffffffffffffffffffffffffffffffffffffff1681526020015f81526020015f81526020015f81526020015f600381111561194c5761194b611b03565b5b81526020015f8019168152602001606081525090565b5f604051905090565b5f80fd5b5f80fd5b5f7fffffffff0000000000000000000000000000000000000000000000000000000082169050919050565b6119a781611973565b81146119b1575f80fd5b50565b5f813590506119c28161199e565b92915050565b5f602082840312156119dd576119dc61196b565b5b5f6119ea848285016119b4565b91505092915050565b5f8115159050919050565b611a07816119f3565b82525050565b5f602082019050611a205f8301846119fe565b92915050565b5f819050919050565b611a3881611a26565b8114611a42575f80fd5b50565b5f81359050611a5381611a2f565b92915050565b5f60208284031215611a6e57611a6d61196b565b5b5f611a7b84828501611a45565b91505092915050565b611a8d81611a26565b82525050565b5f602082019050611aa65f830184611a84565b92915050565b5f73ffffffffffffffffffffffffffffffffffffffff82169050919050565b5f611ad582611aac565b9050919050565b611ae581611acb565b82525050565b5f819050919050565b611afd81611aeb565b82525050565b7f4e487b71000000000000000000000000000000000000000000000000000000005f52602160045260245ffd5b60048110611b4157611b40611b03565b5b50565b5f819050611b5182611b30565b919050565b5f611b6082611b44565b9050919050565b611b7081611b56565b82525050565b5f81519050919050565b5f82825260208201905092915050565b5f5b83811015611bad578082015181840152602081019050611b92565b5f8484015250505050565b5f601f19601f8301169050919050565b5f611bd282611b76565b611bdc8185611b80565b9350611bec818560208601611b90565b611bf581611bb8565b840191505092915050565b5f61012082019050611c145f83018c611adc565b611c21602083018b611adc565b611c2e604083018a611adc565b611c3b6060830189611af4565b611c486080830188611af4565b611c5560a0830187611af4565b611c6260c0830186611b67565b611c6f60e0830185611a84565b818103610100830152611c828184611bc8565b90509a9950505050505050505050565b611c9b81611acb565b8114611ca5575f80fd5b50565b5f81359050611cb681611c92565b92915050565b5f8060408385031215611cd257611cd161196b565b5b5f611cdf85828601611a45565b9250506020611cf085828601611ca8565b9150509250929050565b611d0381611aeb565b8114611d0d575f80fd5b50565b5f81359050611d1e81611cfa565b92915050565b5f80fd5b5f80fd5b7f4e487b71000000000000000000000000000000000000000000000000000000005f52604160045260245ffd5b611d6282611bb8565b810181811067ffffffffffffffff82111715611d8157611d80611d2c565b5b80604052505050565b5f611d93611962565b9050611d9f8282611d59565b919050565b5f67ffffffffffffffff821115611dbe57611dbd611d2c565b5b611dc782611bb8565b9050602081019050919050565b828183375f83830152505050565b5f611df4611def84611da4565b611d8a565b905082815260208101848484011115611e1057611e0f611d28565b5b611e1b848285611dd4565b509392505050565b5f82601f830112611e3757611e36611d24565b5b8135611e47848260208601611de2565b91505092915050565b5f805f805f8060c08789031215611e6a57611e6961196b565b5b5f611e7789828a01611ca8565b9650506020611e8889828a01611ca8565b9550506040611e9989828a01611d10565b9450506060611eaa89828a01611d10565b9350506080611ebb89828a01611a45565b92505060a087013567ffffffffffffffff811115611edc57611edb61196f565b5b611ee889828a01611e23565b9150509295509295509295565b5f602082019050611f085f830184611b67565b92915050565b611f1781611acb565b82525050565b611f2681611aeb565b82525050565b611f3581611b56565b82525050565b611f4481611a26565b82525050565b5f82825260208201905092915050565b5f611f6482611b76565b611f6e8185611f4a565b9350611f7e818560208601611b90565b611f8781611bb8565b840191505092915050565b5f61012083015f830151611fa85f860182611f0e565b506020830151611fbb6020860182611f0e565b506040830151611fce6040860182611f0e565b506060830151611fe16060860182611f1d565b506080830151611ff46080860182611f1d565b5060a083015161200760a0860182611f1d565b5060c083015161201a60c0860182611f2c565b5060e083015161202d60e0860182611f3b565b506101008301518482036101008601526120478282611f5a565b9150508091505092915050565b5f6020820190508181035f83015261206c8184611f92565b905092915050565b7f4e487b71000000000000000000000000000000000000000000000000000000005f52602260045260245ffd5b5f60028204905060018216806120b857607f821691505b6020821081036120cb576120ca612074565b5b50919050565b7f496e76616c6964207061796565000000000000000000000000000000000000005f82015250565b5f612105600d83611b80565b9150612110826120d1565b602082019050919050565b5f6020820190508181035f830152612132816120f9565b9050919050565b7f416d6f756e74206d7573742062652067726561746572207468616e20300000005f82015250565b5f61216d601d83611b80565b915061217882612139565b602082019050919050565b5f6020820190508181035f83015261219a81612161565b9050919050565b7f496e636f7272656374206e617469766520746f6b656e20616d6f756e740000005f82015250565b5f6121d5601d83611b80565b91506121e0826121a1565b602082019050919050565b5f6020820190508181035f830152612202816121c9565b9050919050565b7f53686f756c64206e6f742073656e64206e617469766520746f6b656e000000005f82015250565b5f61223d601c83611b80565b915061224882612209565b602082019050919050565b5f6020820190508181035f83015261226a81612231565b9050919050565b5f8160601b9050919050565b5f61228782612271565b9050919050565b5f6122988261227d565b9050919050565b6122b06122ab82611acb565b61228e565b82525050565b5f819050919050565b6122d06122cb82611aeb565b6122b6565b82525050565b5f819050919050565b6122f06122eb82611a26565b6122d6565b82525050565b5f612301828861229f565b601482019150612311828761229f565b60148201915061232182866122bf565b60208201915061233182856122bf565b60208201915061234182846122df565b6020820191508190509695505050505050565b7f4e487b71000000000000000000000000000000000000000000000000000000005f52601160045260245ffd5b5f61238b82611aeb565b915061239683611aeb565b92508282019050808211156123ae576123ad612354565b5b92915050565b5f819050815f5260205f209050919050565b5f6020601f8301049050919050565b5f82821b905092915050565b5f600883026124107fffffffffffffffffffffffffffffffffffffffffffffffffffffffffffffffff826123d5565b61241a86836123d5565b95508019841693508086168417925050509392505050565b5f819050919050565b5f61245561245061244b84611aeb565b612432565b611aeb565b9050919050565b5f819050919050565b61246e8361243b565b61248261247a8261245c565b8484546123e1565b825550505050565b5f90565b61249661248a565b6124a1818484612465565b505050565b5b818110156124c4576124b95f8261248e565b6001810190506124a7565b5050565b601f821115612509576124da816123b4565b6124e3846123c6565b810160208510156124f2578190505b6125066124fe856123c6565b8301826124a6565b50505b505050565b5f82821c905092915050565b5f6125295f198460080261250e565b1980831691505092915050565b5f612541838361251a565b9150826002028217905092915050565b61255a82611b76565b67ffffffffffffffff81111561257357612572611d2c565b5b61257d82546120a1565b6125888282856124c8565b5f60209050601f8311600181146125b9575f84156125a7578287015190505b6125b18582612536565b865550612618565b601f1984166125c7866123b4565b5f5b828110156125ee578489015182556001820191506020850194506020810190506125c9565b8683101561260b5784890151612607601f89168261251a565b8355505b6001600288020188555050505b505050505050565b5f6040820190506126335f830185611af4565b6126406020830184611adc565b9392505050565b7f457363726f77206e6f74206163746976650000000000000000000000000000005f82015250565b5f61267b601183611b80565b915061268682612647565b602082019050919050565b5f6020820190508181035f8301526126a88161266f565b9050919050565b7f4e6f7420617574686f72697a656420746f20726566756e6400000000000000005f82015250565b5f6126e3601883611b80565b91506126ee826126af565b602082019050919050565b5f6020820190508181035f830152612710816126d7565b9050919050565b5f81905092915050565b50565b5f61272f5f83612717565b915061273a82612721565b5f82019050919050565b5f61274e82612724565b9150819050919050565b7f4e6174697665207472616e73666572206661696c6564000000000000000000005f82015250565b5f61278c601683611b80565b915061279782612758565b602082019050919050565b5f6020820190508181035f8301526127b981612780565b9050919050565b5f6020820190506127d35f830184611adc565b92915050565b5f6040820190506127ec5f830185611adc565b6127f96020830184611a84565b939250505056fea2646970667358221220a57ebed1d272e56ed89ff44a013f36cc214de7382e89486e5a33ce4bfeada6f864736f6c63430008160033","linkReferences":{}},"methodIdentifiers":{"DEFAULT_ADMIN_ROLE()":"a217fddf","FACILITATOR_ROLE()":"a7302b07","createEscrow(address,address,uint256,uint256,bytes32,string)":"3229f921","escrows(bytes32)":"2d83549c","getEscrow(bytes32)":"f023b811","getEscrowStatus(bytes32)":"5356d0ca","getRoleAdmin(bytes32)":"248a9ca3","grantRole(bytes32,address)":"2f2ff15d","hasRole(bytes32,address)":"91d14854","refundEscrow(bytes32)":"47aed508","releaseEscrow(bytes32)":"bf89fc61","renounceRole(bytes32,address)":"36568abe","revokeRole(bytes32,address)":"d547741f","supportsInterface(bytes4)":"01ffc9a7"},"id":34}